{
  "contractName": "PorkChain",
  "abi": [
    {
      "anonymous": false,
      "inputs": [
        {
          "indexed": true,
          "name": "shipmentId",
          "type": "uint8"
        },
        {
          "indexed": false,
          "name": "destination",
          "type": "uint8"
        },
        {
          "indexed": false,
          "name": "source",
          "type": "string"
        }
      ],
      "name": "ShipmentCreated",
      "type": "event"
    },
    {
      "constant": false,
      "inputs": [
        {
          "name": "_destination",
          "type": "uint8"
        },
        {
          "name": "_source",
          "type": "string"
        }
      ],
      "name": "addShipment",
      "outputs": [],
      "payable": false,
      "stateMutability": "nonpayable",
      "type": "function"
    },
    {
      "constant": true,
      "inputs": [
        {
          "name": "_shipmentId",
          "type": "uint8"
        }
      ],
      "name": "getShipmentDataById",
      "outputs": [
        {
          "name": "",
          "type": "uint8"
        },
        {
          "name": "",
          "type": "uint8"
        },
        {
          "name": "",
          "type": "string"
        }
      ],
      "payable": false,
      "stateMutability": "view",
      "type": "function"
    }
  ],
  "bytecode": "0x608060405234801561001057600080fd5b5061070b806100206000396000f3fe608060405260043610610046576000357c01000000000000000000000000000000000000000000000000000000009004806346e501281461004b5780634d1863f914610120575b600080fd5b34801561005757600080fd5b5061011e6004803603604081101561006e57600080fd5b81019080803560ff1690602001909291908035906020019064010000000081111561009857600080fd5b8201836020820111156100aa57600080fd5b803590602001918460018302840111640100000000831117156100cc57600080fd5b91908080601f016020809104026020016040519081016040528093929190818152602001838380828437600081840152601f19601f8201169050808301925050505050505091929192905050506101f1565b005b34801561012c57600080fd5b5061015c6004803603602081101561014357600080fd5b81019080803560ff1690602001909291905050506103a4565b604051808460ff1660ff1681526020018360ff1660ff16815260200180602001828103825283818151815260200191508051906020019080838360005b838110156101b4578082015181840152602081019050610199565b50505050905090810190601f1680156101e15780820380516001836020036101000a031916815260200191505b5094505050505060405180910390f35b6001600081819054906101000a900460ff168092919060010191906101000a81548160ff021916908360ff160217905550506000606060405190810160405280600160009054906101000a900460ff1660ff1681526020018460ff168152602001838152509080600181540180825580915050906001820390600052602060002090600202016000909192909190915060008201518160000160006101000a81548160ff021916908360ff16021790555060208201518160000160016101000a81548160ff021916908360ff16021790555060408201518160010190805190602001906102df92919061063a565b50505050600160009054906101000a900460ff1660ff167fda9a205b72c183b03f60512433e0fe4ed19d0d6619ed4a0faf02ce814ca39f6a8383604051808360ff1660ff16815260200180602001828103825283818151815260200191508051906020019080838360005b8381101561036557808201518184015260208101905061034a565b50505050905090810190601f1680156103925780820380516001836020036101000a031916815260200191505b50935050505060405180910390a25050565b600080606060008460ff161180156103d15750600160009054906101000a900460ff1660ff168460ff1611155b1515610445576040517f08c379a00000000000000000000000000000000000000000000000000000000081526004018080602001828103825260138152602001807f496e76616c696420736869706d656e742049440000000000000000000000000081525060200191505060405180910390fd5b60008090505b6000805490508110156105c4578460ff1660008281548110151561046b57fe5b906000526020600020906002020160000160009054906101000a900460ff1660ff1614156105b7576000818154811015156104a257fe5b906000526020600020906002020160000160009054906101000a900460ff166000828154811015156104d057fe5b906000526020600020906002020160000160019054906101000a900460ff166000838154811015156104fe57fe5b9060005260206000209060020201600101808054600181600116156101000203166002900480601f0160208091040260200160405190810160405280929190818152602001828054600181600116156101000203166002900480156105a45780601f10610579576101008083540402835291602001916105a4565b820191906000526020600020905b81548152906001019060200180831161058757829003601f168201915b5050505050905093509350935050610633565b808060010191505061044b565b506040517f08c379a00000000000000000000000000000000000000000000000000000000081526004018080602001828103825260128152602001807f536869706d656e74206e6f7420666f756e64000000000000000000000000000081525060200191505060405180910390fd5b9193909250565b828054600181600116156101000203166002900490600052602060002090601f016020900481019282601f1061067b57805160ff19168380011785556106a9565b828001600101855582156106a9579182015b828111156106a857825182559160200191906001019061068d565b5b5090506106b691906106ba565b5090565b6106dc91905b808211156106d85760008160009055506001016106c0565b5090565b9056fea165627a7a7230582053ef3207be310506e3a79be41afb4c6482e3c9fd0fed3322eb89695a4a5c8e020029",
  "source": "// SPDX-License-Identifier: MIT\r\npragma solidity >=0.4.22 <0.9.0;\r\n\r\ncontract PorkChain {\r\n\r\n    struct Shipment {\r\n        uint8 shipmentID; \r\n        uint8 destination;\r\n        string source;\r\n    }\r\n\r\n    Shipment[] private shipments;\r\n    uint8 private shipmentCount;\r\n\r\n    event ShipmentCreated(uint8 indexed shipmentId, uint8 destination, string source);\r\n\r\n    function addShipment(uint8 _destination, string memory _source) public {\r\n        shipmentCount++;\r\n        shipments.push(Shipment(shipmentCount, _destination, _source));\r\n        emit ShipmentCreated(shipmentCount, _destination, _source);\r\n    }\r\n\r\n    function getShipmentDataById(uint8 _shipmentId) public view returns (uint8, uint8, string memory) {\r\n        require(_shipmentId > 0 && _shipmentId <= shipmentCount, \"Invalid shipment ID\");\r\n        for (uint i = 0; i < shipments.length; i++) {\r\n            if (shipments[i].shipmentID == _shipmentId) {\r\n                return (shipments[i].shipmentID, shipments[i].destination, shipments[i].source);\r\n            }\r\n        }\r\n        revert(\"Shipment not found\");\r\n    }\r\n}\r\n\r\n\r\n    // struct Shipment {\r\n    //     uint8 shipmentID;\r\n    //     string source;\r\n    //     uint8 destination;\r\n    //     string sendDate;\r\n    //     string estimateArrivalDate;\r\n    // }\r\n\r\n    // Shipment[] public shipments;\r\n    // uint8 public shipmentCount;\r\n\r\n    // event ShipmentCreated(uint8 indexed shipmentId, string source, uint8 destination, string sendDate, string estimateArrivalDate);\r\n\r\n    // // Function to add a new shipment\r\n    // function addShipment(string memory _source, uint8 _destination, string memory _sendDate, string memory _estimateArrivalDate) public {\r\n    //     shipmentCount++;\r\n    //     shipments.push(Shipment(shipmentCount, _source, _destination, _sendDate, _estimateArrivalDate));\r\n    //     emit ShipmentCreated(shipmentCount, _source, _destination, _sendDate, _estimateArrivalDate);\r\n    // }\r\n\r\n    // // Function to get shipment data by ID\r\n    // function getShipmentDataById(uint8 _shipmentId) public view returns (uint8, string memory, uint8, string memory, string memory) {\r\n    //     for (uint i = 0; i < shipments.length; i++) {\r\n    //         if (shipments[i].shipmentID == _shipmentId) {\r\n    //             return (shipments[i].shipmentID, shipments[i].source, shipments[i].destination, shipments[i].sendDate, shipments[i].estimateArrivalDate);\r\n    //         }\r\n    //     }\r\n    //     revert(\"Shipment not found\");\r\n    // }\r\n\r\n",
  "sourcePath": "D:\\BC\\porkchainSC\\contracts\\PorkChain.sol",
  "compiler": {
    "name": "solc",
    "version": "0.5.1+commit.c8a2cb62.Emscripten.clang"
  },
  "schemaVersion": "3.4.16",
  "updatedAt": "2024-04-07T22:59:31.597Z",
  "devdoc": {
    "methods": {}
  },
  "userdoc": {
    "methods": {}
  }
}