{
  "contractName": "PorkChain",
  "abi": [
    {
      "constant": true,
      "inputs": [
        {
          "name": "",
          "type": "uint256"
        }
      ],
      "name": "products",
      "outputs": [
        {
          "name": "productID",
          "type": "uint8"
        },
        {
          "name": "productWeight",
          "type": "uint8"
        },
        {
          "name": "productName",
          "type": "string"
        }
      ],
      "payable": false,
      "stateMutability": "view",
      "type": "function"
    },
    {
      "constant": true,
      "inputs": [],
      "name": "productCount",
      "outputs": [
        {
          "name": "",
          "type": "uint8"
        }
      ],
      "payable": false,
      "stateMutability": "view",
      "type": "function"
    },
    {
      "anonymous": false,
      "inputs": [
        {
          "indexed": true,
          "name": "shipmentId",
          "type": "uint8"
        },
        {
          "indexed": false,
          "name": "destination",
          "type": "uint8"
        },
        {
          "indexed": false,
          "name": "source",
          "type": "string"
        }
      ],
      "name": "ShipmentCreated",
      "type": "event"
    },
    {
      "anonymous": false,
      "inputs": [
        {
          "indexed": true,
          "name": "productID",
          "type": "uint8"
        },
        {
          "indexed": true,
          "name": "productWeight",
          "type": "uint8"
        },
        {
          "indexed": false,
          "name": "productName",
          "type": "string"
        }
      ],
      "name": "ProductAdded",
      "type": "event"
    },
    {
      "constant": false,
      "inputs": [
        {
          "name": "_destination",
          "type": "uint8"
        },
        {
          "name": "_source",
          "type": "string"
        }
      ],
      "name": "addShipment",
      "outputs": [],
      "payable": false,
      "stateMutability": "nonpayable",
      "type": "function"
    },
    {
      "constant": true,
      "inputs": [
        {
          "name": "_shipmentId",
          "type": "uint8"
        }
      ],
      "name": "getShipmentDataById",
      "outputs": [
        {
          "name": "",
          "type": "uint8"
        },
        {
          "name": "",
          "type": "uint8"
        },
        {
          "name": "",
          "type": "string"
        }
      ],
      "payable": false,
      "stateMutability": "view",
      "type": "function"
    },
    {
      "constant": false,
      "inputs": [
        {
          "name": "_productWeight",
          "type": "uint8"
        },
        {
          "name": "_productName",
          "type": "string"
        }
      ],
      "name": "addProduct",
      "outputs": [],
      "payable": false,
      "stateMutability": "nonpayable",
      "type": "function"
    },
    {
      "constant": true,
      "inputs": [
        {
          "name": "_productID",
          "type": "uint8"
        }
      ],
      "name": "getProductDataById",
      "outputs": [
        {
          "name": "productID",
          "type": "uint8"
        },
        {
          "name": "productWeight",
          "type": "uint8"
        },
        {
          "name": "productName",
          "type": "string"
        }
      ],
      "payable": false,
      "stateMutability": "view",
      "type": "function"
    }
  ],
  "bytecode": "0x608060405234801561001057600080fd5b50610e7d806100206000396000f3fe608060405260043610610072576000357c01000000000000000000000000000000000000000000000000000000009004806322fc12c714610077578063411015ab1461014857806346e501281461021d5780634d1863f9146102f25780637acc0b20146103c3578063e0f6ef8714610491575b600080fd5b34801561008357600080fd5b506100b36004803603602081101561009a57600080fd5b81019080803560ff1690602001909291905050506104c2565b604051808460ff1660ff1681526020018360ff1660ff16815260200180602001828103825283818151815260200191508051906020019080838360005b8381101561010b5780820151818401526020810190506100f0565b50505050905090810190601f1680156101385780820380516001836020036101000a031916815260200191505b5094505050505060405180910390f35b34801561015457600080fd5b5061021b6004803603604081101561016b57600080fd5b81019080803560ff1690602001909291908035906020019064010000000081111561019557600080fd5b8201836020820111156101a757600080fd5b803590602001918460018302840111640100000000831117156101c957600080fd5b91908080601f016020809104026020016040519081016040528093929190818152602001838380828437600081840152601f19601f8201169050808301925050505050505091929192905050506106bc565b005b34801561022957600080fd5b506102f06004803603604081101561024057600080fd5b81019080803560ff1690602001909291908035906020019064010000000081111561026a57600080fd5b82018360208201111561027c57600080fd5b8035906020019184600183028401116401000000008311171561029e57600080fd5b91908080601f016020809104026020016040519081016040528093929190818152602001838380828437600081840152601f19601f820116905080830192505050505050509192919290505050610865565b005b3480156102fe57600080fd5b5061032e6004803603602081101561031557600080fd5b81019080803560ff169060200190929190505050610a18565b604051808460ff1660ff1681526020018360ff1660ff16815260200180602001828103825283818151815260200191508051906020019080838360005b8381101561038657808201518184015260208101905061036b565b50505050905090810190601f1680156103b35780820380516001836020036101000a031916815260200191505b5094505050505060405180910390f35b3480156103cf57600080fd5b506103fc600480360360208110156103e657600080fd5b8101908080359060200190929190505050610cae565b604051808460ff1660ff1681526020018360ff1660ff16815260200180602001828103825283818151815260200191508051906020019080838360005b83811015610454578082015181840152602081019050610439565b50505050905090810190601f1680156104815780820380516001836020036101000a031916815260200191505b5094505050505060405180910390f35b34801561049d57600080fd5b506104a6610d99565b604051808260ff1660ff16815260200191505060405180910390f35b600080606060008090505b600280549050811015610646578460ff166002828154811015156104ed57fe5b906000526020600020906002020160000160009054906101000a900460ff1660ff1614156106395760028181548110151561052457fe5b906000526020600020906002020160000160009054906101000a900460ff1660028281548110151561055257fe5b906000526020600020906002020160000160019054906101000a900460ff1660028381548110151561058057fe5b9060005260206000209060020201600101808054600181600116156101000203166002900480601f0160208091040260200160405190810160405280929190818152602001828054600181600116156101000203166002900480156106265780601f106105fb57610100808354040283529160200191610626565b820191906000526020600020905b81548152906001019060200180831161060957829003601f168201915b50505050509050935093509350506106b5565b80806001019150506104cd565b506040517f08c379a00000000000000000000000000000000000000000000000000000000081526004018080602001828103825260118152602001807f50726f64756374206e6f7420666f756e6400000000000000000000000000000081525060200191505060405180910390fd5b9193909250565b6003600081819054906101000a900460ff168092919060010191906101000a81548160ff021916908360ff160217905550506002606060405190810160405280600360009054906101000a900460ff1660ff1681526020018460ff168152602001838152509080600181540180825580915050906001820390600052602060002090600202016000909192909190915060008201518160000160006101000a81548160ff021916908360ff16021790555060208201518160000160016101000a81548160ff021916908360ff16021790555060408201518160010190805190602001906107aa929190610dac565b505050508160ff16600360009054906101000a900460ff1660ff167f9181679500bdafce1bf16d006f632cd53a7e73395fd81267622d38b16921d5f3836040518080602001828103825283818151815260200191508051906020019080838360005b8381101561082757808201518184015260208101905061080c565b50505050905090810190601f1680156108545780820380516001836020036101000a031916815260200191505b509250505060405180910390a35050565b6001600081819054906101000a900460ff168092919060010191906101000a81548160ff021916908360ff160217905550506000606060405190810160405280600160009054906101000a900460ff1660ff1681526020018460ff168152602001838152509080600181540180825580915050906001820390600052602060002090600202016000909192909190915060008201518160000160006101000a81548160ff021916908360ff16021790555060208201518160000160016101000a81548160ff021916908360ff1602179055506040820151816001019080519060200190610953929190610dac565b50505050600160009054906101000a900460ff1660ff167fda9a205b72c183b03f60512433e0fe4ed19d0d6619ed4a0faf02ce814ca39f6a8383604051808360ff1660ff16815260200180602001828103825283818151815260200191508051906020019080838360005b838110156109d95780820151818401526020810190506109be565b50505050905090810190601f168015610a065780820380516001836020036101000a031916815260200191505b50935050505060405180910390a25050565b600080606060008460ff16118015610a455750600160009054906101000a900460ff1660ff168460ff1611155b1515610ab9576040517f08c379a00000000000000000000000000000000000000000000000000000000081526004018080602001828103825260138152602001807f496e76616c696420736869706d656e742049440000000000000000000000000081525060200191505060405180910390fd5b60008090505b600080549050811015610c38578460ff16600082815481101515610adf57fe5b906000526020600020906002020160000160009054906101000a900460ff1660ff161415610c2b57600081815481101515610b1657fe5b906000526020600020906002020160000160009054906101000a900460ff16600082815481101515610b4457fe5b906000526020600020906002020160000160019054906101000a900460ff16600083815481101515610b7257fe5b9060005260206000209060020201600101808054600181600116156101000203166002900480601f016020809104026020016040519081016040528092919081815260200182805460018160011615610100020316600290048015610c185780601f10610bed57610100808354040283529160200191610c18565b820191906000526020600020905b815481529060010190602001808311610bfb57829003601f168201915b5050505050905093509350935050610ca7565b8080600101915050610abf565b506040517f08c379a00000000000000000000000000000000000000000000000000000000081526004018080602001828103825260128152602001807f536869706d656e74206e6f7420666f756e64000000000000000000000000000081525060200191505060405180910390fd5b9193909250565b600281815481101515610cbd57fe5b90600052602060002090600202016000915090508060000160009054906101000a900460ff16908060000160019054906101000a900460ff1690806001018054600181600116156101000203166002900480601f016020809104026020016040519081016040528092919081815260200182805460018160011615610100020316600290048015610d8f5780601f10610d6457610100808354040283529160200191610d8f565b820191906000526020600020905b815481529060010190602001808311610d7257829003601f168201915b5050505050905083565b600360009054906101000a900460ff1681565b828054600181600116156101000203166002900490600052602060002090601f016020900481019282601f10610ded57805160ff1916838001178555610e1b565b82800160010185558215610e1b579182015b82811115610e1a578251825591602001919060010190610dff565b5b509050610e289190610e2c565b5090565b610e4e91905b80821115610e4a576000816000905550600101610e32565b5090565b9056fea165627a7a72305820a1fb97880465086b4a22e5a21a1446d729fe1622454717334f5b6a36bd67133e0029",
  "source": "// SPDX-License-Identifier: MIT\r\npragma solidity >=0.4.22 <0.9.0;\r\n\r\ncontract PorkChain {\r\n   struct Pig {\r\n        uint8 pigID;\r\n        uint8 pigWeight;\r\n        string pigHealth;\r\n   }\r\n\r\n    struct Shipment {\r\n        uint8 shipmentID; \r\n        uint8 destination;\r\n        string source;\r\n    }\r\n\r\n    Shipment[] private shipments;\r\n    uint8 private shipmentCount;\r\n\r\n    event ShipmentCreated(uint8 indexed shipmentId, uint8 destination, string source);\r\n\r\n    function addShipment(uint8 _destination, string memory _source) public {\r\n        shipmentCount++;\r\n        shipments.push(Shipment(shipmentCount, _destination, _source));\r\n        emit ShipmentCreated(shipmentCount, _destination, _source);\r\n    }\r\n\r\n    function getShipmentDataById(uint8 _shipmentId) public view returns (uint8, uint8, string memory) {\r\n        require(_shipmentId > 0 && _shipmentId <= shipmentCount, \"Invalid shipment ID\");\r\n        for (uint i = 0; i < shipments.length; i++) {\r\n            if (shipments[i].shipmentID == _shipmentId) {\r\n                return (shipments[i].shipmentID, shipments[i].destination, shipments[i].source);\r\n            }\r\n        }\r\n        revert(\"Shipment not found\");\r\n    }\r\n   \r\n\r\n   struct Product {\r\n        uint8 productID;\r\n        uint8 productWeight;\r\n        string productName;\r\n    }\r\n\r\n    Product[] public products;\r\n    uint8 public productCount;\r\n\r\n    event ProductAdded(uint8 indexed productID, uint8 indexed productWeight , string productName);\r\n\r\n    // Function to add a product (only callable by slaughterer)\r\n    function addProduct(uint8 _productWeight, string memory _productName) public {\r\n        productCount++;\r\n        products.push(Product(productCount, _productWeight, _productName));\r\n        emit ProductAdded(productCount, _productWeight, _productName);\r\n    }\r\n\r\n    // Function to get product data by ID\r\n    function getProductDataById(uint8 _productID) public view returns (uint8 productID, uint8 productWeight, string memory productName) {\r\n        for (uint i = 0; i < products.length; i++) {\r\n            if (products[i].productID == _productID) {\r\n                return (products[i].productID, products[i].productWeight, products[i].productName);\r\n            }\r\n        }\r\n        revert(\"Product not found\");\r\n    }\r\n\r\n}\r\n\r\n\r\n\r\n    // struct Shipment {\r\n    //     uint8 shipmentID;\r\n    //     string source;\r\n    //     uint8 destination;\r\n    //     string sendDate;\r\n    //     string estimateArrivalDate;\r\n    // }\r\n\r\n    // Shipment[] public shipments;\r\n    // uint8 public shipmentCount;\r\n\r\n    // event ShipmentCreated(uint8 indexed shipmentId, string source, uint8 destination, string sendDate, string estimateArrivalDate);\r\n\r\n    // // Function to add a new shipment\r\n    // function addShipment(string memory _source, uint8 _destination, string memory _sendDate, string memory _estimateArrivalDate) public {\r\n    //     shipmentCount++;\r\n    //     shipments.push(Shipment(shipmentCount, _source, _destination, _sendDate, _estimateArrivalDate));\r\n    //     emit ShipmentCreated(shipmentCount, _source, _destination, _sendDate, _estimateArrivalDate);\r\n    // }\r\n\r\n    // // Function to get shipment data by ID\r\n    // function getShipmentDataById(uint8 _shipmentId) public view returns (uint8, string memory, uint8, string memory, string memory) {\r\n    //     for (uint i = 0; i < shipments.length; i++) {\r\n    //         if (shipments[i].shipmentID == _shipmentId) {\r\n    //             return (shipments[i].shipmentID, shipments[i].source, shipments[i].destination, shipments[i].sendDate, shipments[i].estimateArrivalDate);\r\n    //         }\r\n    //     }\r\n    //     revert(\"Shipment not found\");\r\n    // }\r\n\r\n",
  "sourcePath": "C:\\Porkchain\\PorkchainJaa\\porkchainz\\contracts\\PorkChain.sol",
  "compiler": {
    "name": "solc",
    "version": "0.5.1+commit.c8a2cb62.Emscripten.clang"
  },
  "schemaVersion": "3.4.16",
  "updatedAt": "2024-04-08T07:49:17.570Z",
  "devdoc": {
    "methods": {}
  },
  "userdoc": {
    "methods": {}
  }
}