{
  "contractName": "PorkChain",
  "abi": [
    {
      "constant": true,
      "inputs": [
        {
          "name": "",
          "type": "uint256"
        }
      ],
      "name": "pigs",
      "outputs": [
        {
          "name": "pigID",
          "type": "uint8"
        },
        {
          "name": "pigWeight",
          "type": "uint8"
        },
        {
          "name": "pigHealth",
          "type": "string"
        },
        {
          "name": "pigBreed",
          "type": "string"
        }
      ],
      "payable": false,
      "stateMutability": "view",
      "type": "function"
    },
    {
      "constant": true,
      "inputs": [],
      "name": "pigCount",
      "outputs": [
        {
          "name": "",
          "type": "uint8"
        }
      ],
      "payable": false,
      "stateMutability": "view",
      "type": "function"
    },
    {
      "anonymous": false,
      "inputs": [
        {
          "indexed": true,
          "name": "pigId",
          "type": "uint8"
        },
        {
          "indexed": false,
          "name": "pigWeight",
          "type": "uint8"
        },
        {
          "indexed": false,
          "name": "pigHealth",
          "type": "string"
        },
        {
          "indexed": false,
          "name": "pigBreed",
          "type": "string"
        }
      ],
      "name": "PigAdded",
      "type": "event"
    },
    {
      "constant": false,
      "inputs": [
        {
          "name": "_pigWeight",
          "type": "uint8"
        },
        {
          "name": "_pigHealth",
          "type": "string"
        },
        {
          "name": "_pigBreed",
          "type": "string"
        }
      ],
      "name": "addPig",
      "outputs": [],
      "payable": false,
      "stateMutability": "nonpayable",
      "type": "function"
    },
    {
      "constant": true,
      "inputs": [
        {
          "name": "_pigId",
          "type": "uint8"
        }
      ],
      "name": "getPigDataById",
      "outputs": [
        {
          "name": "pigID",
          "type": "uint8"
        },
        {
          "name": "pigWeight",
          "type": "uint8"
        },
        {
          "name": "pigHealth",
          "type": "string"
        }
      ],
      "payable": false,
      "stateMutability": "view",
      "type": "function"
    }
  ],
  "bytecode": "0x608060405234801561001057600080fd5b50610ab4806100206000396000f3fe60806040526004361061005c576000357c0100000000000000000000000000000000000000000000000000000000900480631d0316de146100615780636ac9bc081461019b578063af81aac11461026c578063d2b296081461029d575b600080fd5b34801561006d57600080fd5b5061009a6004803603602081101561008457600080fd5b8101908080359060200190929190505050610409565b604051808560ff1660ff1681526020018460ff1660ff1681526020018060200180602001838103835285818151815260200191508051906020019080838360005b838110156100f65780820151818401526020810190506100db565b50505050905090810190601f1680156101235780820380516001836020036101000a031916815260200191505b50838103825284818151815260200191508051906020019080838360005b8381101561015c578082015181840152602081019050610141565b50505050905090810190601f1680156101895780820380516001836020036101000a031916815260200191505b50965050505050505060405180910390f35b3480156101a757600080fd5b506101d7600480360360208110156101be57600080fd5b81019080803560ff169060200190929190505050610592565b604051808460ff1660ff1681526020018360ff1660ff16815260200180602001828103825283818151815260200191508051906020019080838360005b8381101561022f578082015181840152602081019050610214565b50505050905090810190601f16801561025c5780820380516001836020036101000a031916815260200191505b5094505050505060405180910390f35b34801561027857600080fd5b5061028161078c565b604051808260ff1660ff16815260200191505060405180910390f35b3480156102a957600080fd5b50610407600480360360608110156102c057600080fd5b81019080803560ff169060200190929190803590602001906401000000008111156102ea57600080fd5b8201836020820111156102fc57600080fd5b8035906020019184600183028401116401000000008311171561031e57600080fd5b91908080601f016020809104026020016040519081016040528093929190818152602001838380828437600081840152601f19601f8201169050808301925050505050505091929192908035906020019064010000000081111561038157600080fd5b82018360208201111561039357600080fd5b803590602001918460018302840111640100000000831117156103b557600080fd5b91908080601f016020809104026020016040519081016040528093929190818152602001838380828437600081840152601f19601f82011690508083019250505050505050919291929050505061079f565b005b60008181548110151561041857fe5b90600052602060002090600302016000915090508060000160009054906101000a900460ff16908060000160019054906101000a900460ff1690806001018054600181600116156101000203166002900480601f0160208091040260200160405190810160405280929190818152602001828054600181600116156101000203166002900480156104ea5780601f106104bf576101008083540402835291602001916104ea565b820191906000526020600020905b8154815290600101906020018083116104cd57829003601f168201915b505050505090806002018054600181600116156101000203166002900480601f0160208091040260200160405190810160405280929190818152602001828054600181600116156101000203166002900480156105885780601f1061055d57610100808354040283529160200191610588565b820191906000526020600020905b81548152906001019060200180831161056b57829003601f168201915b5050505050905084565b600080606060008090505b600080549050811015610716578460ff166000828154811015156105bd57fe5b906000526020600020906003020160000160009054906101000a900460ff1660ff161415610709576000818154811015156105f457fe5b906000526020600020906003020160000160009054906101000a900460ff1660008281548110151561062257fe5b906000526020600020906003020160000160019054906101000a900460ff1660008381548110151561065057fe5b9060005260206000209060030201600101808054600181600116156101000203166002900480601f0160208091040260200160405190810160405280929190818152602001828054600181600116156101000203166002900480156106f65780601f106106cb576101008083540402835291602001916106f6565b820191906000526020600020905b8154815290600101906020018083116106d957829003601f168201915b5050505050905093509350935050610785565b808060010191505061059d565b506040517f08c379a000000000000000000000000000000000000000000000000000000000815260040180806020018281038252600d8152602001807f506967206e6f7420666f756e640000000000000000000000000000000000000081525060200191505060405180910390fd5b9193909250565b600160009054906101000a900460ff1681565b6001600081819054906101000a900460ff168092919060010191906101000a81548160ff021916908360ff160217905550506000608060405190810160405280600160009054906101000a900460ff1660ff1681526020018560ff168152602001848152602001838152509080600181540180825580915050906001820390600052602060002090600302016000909192909190915060008201518160000160006101000a81548160ff021916908360ff16021790555060208201518160000160016101000a81548160ff021916908360ff16021790555060408201518160010190805190602001906108939291906109e3565b5060608201518160020190805190602001906108b09291906109e3565b50505050600160009054906101000a900460ff1660ff167fbdbf7a2df3363a01d09477e3fbc2da3d65cee4b3478197fa1654567173fdf6a5848484604051808460ff1660ff1681526020018060200180602001838103835285818151815260200191508051906020019080838360005b8381101561093b578082015181840152602081019050610920565b50505050905090810190601f1680156109685780820380516001836020036101000a031916815260200191505b50838103825284818151815260200191508051906020019080838360005b838110156109a1578082015181840152602081019050610986565b50505050905090810190601f1680156109ce5780820380516001836020036101000a031916815260200191505b509550505050505060405180910390a2505050565b828054600181600116156101000203166002900490600052602060002090601f016020900481019282601f10610a2457805160ff1916838001178555610a52565b82800160010185558215610a52579182015b82811115610a51578251825591602001919060010190610a36565b5b509050610a5f9190610a63565b5090565b610a8591905b80821115610a81576000816000905550600101610a69565b5090565b9056fea165627a7a72305820bbe037c5774f7e356d90d32e6a6def1d8c72a3869347cac7f56f86c5c64d91cb0029",
  "source": "// SPDX-License-Identifier: MIT\r\npragma solidity >=0.4.22 <0.9.0;\r\n\r\ncontract PorkChain {\r\n   struct Pig {\r\n        uint8 pigID;\r\n        uint8 pigWeight;\r\n        string pigHealth;\r\n        string pigBreed;\r\n    }\r\n\r\n    Pig[] public pigs;\r\n    uint8 public pigCount;\r\n\r\n    event PigAdded(uint8 indexed pigId, uint8 pigWeight, string pigHealth,string pigBreed);\r\n\r\n    function addPig(uint8 _pigWeight, string memory _pigHealth,string memory _pigBreed) public {\r\n        pigCount++;\r\n        pigs.push(Pig(pigCount, _pigWeight, _pigHealth, _pigBreed));\r\n        emit PigAdded(pigCount, _pigWeight, _pigHealth, _pigBreed);\r\n    }\r\n\r\n    function getPigDataById(uint8 _pigId) public view returns (uint8 pigID, uint8 pigWeight, string memory pigHealth) {\r\n        for (uint i = 0; i < pigs.length; i++) {\r\n            if (pigs[i].pigID == _pigId) {\r\n                return (pigs[i].pigID, pigs[i].pigWeight, pigs[i].pigHealth);\r\n            }\r\n        }\r\n        revert(\"Pig not found\");\r\n    }\r\n}\r\n\r\n// contract PorkChain {\r\n//     struct Pig {\r\n//         uint8 pigID;\r\n//         uint8 pigWeight;\r\n//         string pigHealth;\r\n//     }\r\n\r\n//     Pig[] public pigs;\r\n//     uint8 public pigCount;\r\n\r\n//     event PigAdded(uint8 indexed pigId, uint8 pigWeight, string pigHealth);\r\n\r\n//     function addPig(uint8 _pigWeight, string memory _pigHealth) public {\r\n//         pigCount++;\r\n//         pigs.push(Pig(pigCount, _pigWeight, _pigHealth));\r\n//         emit PigAdded(pigCount, _pigWeight, _pigHealth);\r\n//     }\r\n\r\n//     function getPigDataById(uint8 _pigId) public view returns (uint8 pigID, uint8 pigWeight, string memory pigHealth) {\r\n//         for (uint i = 0; i < pigs.length; i++) {\r\n//             if (pigs[i].pigID == _pigId) {\r\n//                 return (pigs[i].pigID, pigs[i].pigWeight, pigs[i].pigHealth);\r\n//             }\r\n//         }\r\n//         revert(\"Pig not found\");\r\n//     }\r\n// }\r\n// contract PorkChain {\r\n//     address public owner;\r\n\r\n//     struct Pig {\r\n//         uint8 pigID;\r\n//         uint8 pigWeight;\r\n//         string pigStartDate;\r\n//         string pigEndDate;\r\n//         string pigBreed;\r\n//         string pigHealth;\r\n//         uint8 batchID;\r\n//     }\r\n\r\n//     struct Batch {\r\n//         uint8 batchID;\r\n//         string batchName;\r\n//         uint8 batchWeight;\r\n//         uint8 batchQuantity;\r\n//         string batchDescription;\r\n//         uint8[] pigIDs;\r\n//     }\r\n    \r\n//     struct Product {\r\n//         uint8 productID;\r\n//         uint8 batchID;\r\n//         string productName;\r\n//         uint8 productWeight;\r\n//         string productDate;\r\n//     }\r\n\r\n//     Pig[] public pigs;\r\n//     Batch[] public batches;\r\n//     Product[] public products;\r\n//     uint8 public pigCount;\r\n//     uint8 public batchCount;\r\n//     uint8 public productCount;\r\n//     uint256 public shipmentCount;\r\n\r\n//     event PigAdded(uint8 indexed pigId, uint8 pigWeight, string pigStartDate, string pigHealth, string pigEndDate, string pigBreed, uint8 batchID);\r\n//     event BatchAdded(uint8 indexed batchId, string batchName, uint8 batchWeight, uint8 batchQuantity, string batchDescription);\r\n//     event ProductAdded(uint8 productID, uint8 batchID, string productName, uint8 productWeight, string productDate);\r\n//     event ShipmentSent(uint256 shipmentID, uint256 productID, uint256 batchID, string source, string destination, string sendDate, string estimateArrivalDate);\r\n\r\n//     constructor() {\r\n//         owner = msg.sender;\r\n//     }\r\n\r\n//     function addPig(uint8 _pigWeight, string memory _pigStartDate, string memory _pigEndDate, string memory _pigBreed, string memory _pigHealth, uint8 _batchID) public {\r\n//         pigCount++;\r\n//         pigs.push(Pig(pigCount, _pigWeight, _pigStartDate, _pigEndDate, _pigBreed, _pigHealth, _batchID));\r\n//         emit PigAdded(pigCount, _pigWeight, _pigStartDate, _pigHealth, _pigEndDate, _pigBreed, _batchID);\r\n//     }\r\n\r\n//     function addBatch(string memory _batchName, string memory _batchDescription, uint8[] memory _pigIDs) public {\r\n//         uint8 totalWeight;\r\n//         uint8 totalPigs = uint8(_pigIDs.length);\r\n\r\n//         for (uint8 i = 0; i < totalPigs; i++) {\r\n//             totalWeight += pigs[_pigIDs[i] - 1].pigWeight;\r\n//         }\r\n\r\n//         batchCount++;\r\n\r\n//         batches.push(Batch(batchCount, _batchName, totalWeight, totalPigs, _batchDescription, _pigIDs));\r\n\r\n//         emit BatchAdded(batchCount, _batchName, totalWeight, totalPigs, _batchDescription);\r\n\r\n//         for (uint8 i = 0; i < totalPigs; i++) {\r\n//             pigs[_pigIDs[i] - 1].batchID = batchCount;\r\n//             emit PigAdded(pigs[_pigIDs[i] - 1].pigID, pigs[_pigIDs[i] - 1].pigWeight, pigs[_pigIDs[i] - 1].pigStartDate, pigs[_pigIDs[i] - 1].pigHealth, pigs[_pigIDs[i] - 1].pigEndDate, pigs[_pigIDs[i] - 1].pigBreed, batchCount);\r\n//         }\r\n//     }\r\n\r\n//     function addProduct(uint8 _batchID, string memory _productName, uint8 _productWeight, string memory _productDate) public {\r\n//         require(_batchID > 0 && _batchID <= batchCount, \"Invalid batch ID\");\r\n        \r\n//         productCount++;\r\n//         products.push(Product(productCount, _batchID, _productName, _productWeight, _productDate));\r\n//         emit ProductAdded(productCount, _batchID, _productName, _productWeight, _productDate);\r\n//     }\r\n\r\n//     function sendShipment(uint8 _productID, string memory _source, string memory _destination, string memory _sendDate, string memory _estimateArrivalDate) public {\r\n//         shipmentCount++;\r\n//         uint8 batchID;\r\n//         for(uint8 i = 0; i < products.length; i++) {\r\n//             if(products[i].productID == _productID) {\r\n//                 batchID = products[i].batchID;\r\n//                 break;\r\n//             }\r\n//         }\r\n//         emit ShipmentSent(shipmentCount, _productID, batchID, _source, _destination, _sendDate, _estimateArrivalDate);\r\n//     }\r\n\r\n//     function getShipmentJourney(uint256 _shipmentID) public view returns (\r\n//     uint8 pigID,\r\n//     string memory pigStartDate,\r\n//     uint8 pigWeight,\r\n//     string memory pigEndDate,\r\n//     uint8 pigBatchID,\r\n//     string memory pigHealth,\r\n//     uint8 batchID,\r\n//     string memory batchName,\r\n//     uint8 batchQuantity,\r\n//     string memory productDate\r\n// ) {\r\n//     require(_shipmentID > 0 && _shipmentID <= shipmentCount, \"Invalid shipment ID\");\r\n\r\n//     uint8 index = uint8(_shipmentID) - 1; \r\n\r\n//     Pig memory pig = pigs[index];\r\n\r\n//     Batch memory batch = batches[pig.batchID - 1];\r\n\r\n//     Product memory product;\r\n//     for(uint8 i = 0; i < products.length; i++) {\r\n//         if(products[i].batchID == batch.batchID) {\r\n//             product = products[i];\r\n//             break;\r\n//         }\r\n//     }\r\n\r\n//     return (\r\n//         pig.pigID,\r\n//         pig.pigStartDate,\r\n//         pig.pigWeight,\r\n//         pig.pigEndDate,\r\n//         pig.batchID,\r\n//         pig.pigHealth,\r\n//         batch.batchID,\r\n//         batch.batchName,\r\n//         batch.batchQuantity,\r\n//         product.productDate\r\n//     );\r\n// }\r\n\r\n//}\r\n//         string pigHealth;\r\n//     }\r\n\r\n//     Pig[] public pigs;\r\n//     uint8 public pigCount;\r\n\r\n//     event PigAdded(uint8 indexed pigId, uint8 pigWeight, string pigHealth);\r\n\r\n//     function addPig(uint8 _pigWeight, string memory _pigHealth) public {\r\n//         pigCount++;\r\n//         pigs.push(Pig(pigCount, _pigWeight, _pigHealth));\r\n//         emit PigAdded(pigCount, _pigWeight, _pigHealth);\r\n//     }\r\n\r\n//     function getPigDataById(uint8 _pigId) public view returns (uint8 pigID, uint8 pigWeight, string memory pigHealth) {\r\n//         for (uint i = 0; i < pigs.length; i++) {\r\n//             if (pigs[i].pigID == _pigId) {\r\n//                 return (pigs[i].pigID, pigs[i].pigWeight, pigs[i].pigHealth);\r\n//             }\r\n//         }\r\n//         revert(\"Pig not found\");\r\n//     }\r\n// }\r\n",
  "sourcePath": "D:\\Coding\\KMUTNB Coding\\Blockchain\\porkchain\\contracts\\PorkChain.sol",
  "compiler": {
    "name": "solc",
    "version": "0.5.1+commit.c8a2cb62.Emscripten.clang"
  },
  "schemaVersion": "3.4.16",
  "updatedAt": "2024-04-07T16:57:09.838Z",
  "devdoc": {
    "methods": {}
  },
  "userdoc": {
    "methods": {}
  }
}