{
  "contractName": "PorkChain",
  "abi": [
    {
      "constant": true,
      "inputs": [
        {
          "name": "",
          "type": "uint256"
        }
      ],
      "name": "pigs",
      "outputs": [
        {
          "name": "pigID",
          "type": "uint8"
        },
        {
          "name": "pigWeight",
          "type": "uint8"
        },
        {
          "name": "pigHealth",
          "type": "string"
        }
      ],
      "payable": false,
      "stateMutability": "view",
      "type": "function"
    },
    {
      "constant": true,
      "inputs": [
        {
          "name": "",
          "type": "uint256"
        }
      ],
      "name": "products",
      "outputs": [
        {
          "name": "productID",
          "type": "uint8"
        },
        {
          "name": "productWeight",
          "type": "uint8"
        },
        {
          "name": "productName",
          "type": "string"
        }
      ],
      "payable": false,
      "stateMutability": "view",
      "type": "function"
    },
    {
      "constant": true,
      "inputs": [],
      "name": "pigCount",
      "outputs": [
        {
          "name": "",
          "type": "uint8"
        }
      ],
      "payable": false,
      "stateMutability": "view",
      "type": "function"
    },
    {
      "constant": true,
      "inputs": [],
      "name": "productCount",
      "outputs": [
        {
          "name": "",
          "type": "uint8"
        }
      ],
      "payable": false,
      "stateMutability": "view",
      "type": "function"
    },
    {
      "anonymous": false,
      "inputs": [
        {
          "indexed": true,
          "name": "pigId",
          "type": "uint8"
        },
        {
          "indexed": false,
          "name": "pigWeight",
          "type": "uint8"
        },
        {
          "indexed": false,
          "name": "pigHealth",
          "type": "string"
        }
      ],
      "name": "PigAdded",
      "type": "event"
    },
    {
      "anonymous": false,
      "inputs": [
        {
          "indexed": true,
          "name": "productID",
          "type": "uint8"
        },
        {
          "indexed": true,
          "name": "productWeight",
          "type": "uint8"
        },
        {
          "indexed": false,
          "name": "productName",
          "type": "string"
        }
      ],
      "name": "ProductAdded",
      "type": "event"
    },
    {
      "constant": false,
      "inputs": [
        {
          "name": "_pigWeight",
          "type": "uint8"
        },
        {
          "name": "_pigHealth",
          "type": "string"
        }
      ],
      "name": "addPig",
      "outputs": [],
      "payable": false,
      "stateMutability": "nonpayable",
      "type": "function"
    },
    {
      "constant": true,
      "inputs": [
        {
          "name": "_pigId",
          "type": "uint8"
        }
      ],
      "name": "getPigDataById",
      "outputs": [
        {
          "name": "pigID",
          "type": "uint8"
        },
        {
          "name": "pigWeight",
          "type": "uint8"
        },
        {
          "name": "pigHealth",
          "type": "string"
        }
      ],
      "payable": false,
      "stateMutability": "view",
      "type": "function"
    },
    {
      "constant": false,
      "inputs": [
        {
          "name": "_productWeight",
          "type": "uint8"
        },
        {
          "name": "_productName",
          "type": "string"
        }
      ],
      "name": "addProduct",
      "outputs": [],
      "payable": false,
      "stateMutability": "nonpayable",
      "type": "function"
    },
    {
      "constant": true,
      "inputs": [
        {
          "name": "_productID",
          "type": "uint8"
        }
      ],
      "name": "getProductDataById",
      "outputs": [
        {
          "name": "productID",
          "type": "uint8"
        },
        {
          "name": "productWeight",
          "type": "uint8"
        },
        {
          "name": "productName",
          "type": "string"
        }
      ],
      "payable": false,
      "stateMutability": "view",
      "type": "function"
    }
  ],
  "bytecode": "0x608060405234801561001057600080fd5b50610ff4806100206000396000f3fe608060405260043610610088576000357c0100000000000000000000000000000000000000000000000000000000900480631d0316de1461008d57806322fc12c71461015b578063411015ab1461022c5780636ac9bc08146103015780637acc0b20146103d2578063af81aac1146104a0578063d4756c79146104d1578063e0f6ef87146105a6575b600080fd5b34801561009957600080fd5b506100c6600480360360208110156100b057600080fd5b81019080803590602001909291905050506105d7565b604051808460ff1660ff1681526020018360ff1660ff16815260200180602001828103825283818151815260200191508051906020019080838360005b8381101561011e578082015181840152602081019050610103565b50505050905090810190601f16801561014b5780820380516001836020036101000a031916815260200191505b5094505050505060405180910390f35b34801561016757600080fd5b506101976004803603602081101561017e57600080fd5b81019080803560ff1690602001909291905050506106c2565b604051808460ff1660ff1681526020018360ff1660ff16815260200180602001828103825283818151815260200191508051906020019080838360005b838110156101ef5780820151818401526020810190506101d4565b50505050905090810190601f16801561021c5780820380516001836020036101000a031916815260200191505b5094505050505060405180910390f35b34801561023857600080fd5b506102ff6004803603604081101561024f57600080fd5b81019080803560ff1690602001909291908035906020019064010000000081111561027957600080fd5b82018360208201111561028b57600080fd5b803590602001918460018302840111640100000000831117156102ad57600080fd5b91908080601f016020809104026020016040519081016040528093929190818152602001838380828437600081840152601f19601f8201169050808301925050505050505091929192905050506108bc565b005b34801561030d57600080fd5b5061033d6004803603602081101561032457600080fd5b81019080803560ff169060200190929190505050610a65565b604051808460ff1660ff1681526020018360ff1660ff16815260200180602001828103825283818151815260200191508051906020019080838360005b8381101561039557808201518184015260208101905061037a565b50505050905090810190601f1680156103c25780820380516001836020036101000a031916815260200191505b5094505050505060405180910390f35b3480156103de57600080fd5b5061040b600480360360208110156103f557600080fd5b8101908080359060200190929190505050610c5f565b604051808460ff1660ff1681526020018360ff1660ff16815260200180602001828103825283818151815260200191508051906020019080838360005b83811015610463578082015181840152602081019050610448565b50505050905090810190601f1680156104905780820380516001836020036101000a031916815260200191505b5094505050505060405180910390f35b3480156104ac57600080fd5b506104b5610d4a565b604051808260ff1660ff16815260200191505060405180910390f35b3480156104dd57600080fd5b506105a4600480360360408110156104f457600080fd5b81019080803560ff1690602001909291908035906020019064010000000081111561051e57600080fd5b82018360208201111561053057600080fd5b8035906020019184600183028401116401000000008311171561055257600080fd5b91908080601f016020809104026020016040519081016040528093929190818152602001838380828437600081840152601f19601f820116905080830192505050505050509192919290505050610d5d565b005b3480156105b257600080fd5b506105bb610f10565b604051808260ff1660ff16815260200191505060405180910390f35b6000818154811015156105e657fe5b90600052602060002090600202016000915090508060000160009054906101000a900460ff16908060000160019054906101000a900460ff1690806001018054600181600116156101000203166002900480601f0160208091040260200160405190810160405280929190818152602001828054600181600116156101000203166002900480156106b85780601f1061068d576101008083540402835291602001916106b8565b820191906000526020600020905b81548152906001019060200180831161069b57829003601f168201915b5050505050905083565b600080606060008090505b600280549050811015610846578460ff166002828154811015156106ed57fe5b906000526020600020906002020160000160009054906101000a900460ff1660ff1614156108395760028181548110151561072457fe5b906000526020600020906002020160000160009054906101000a900460ff1660028281548110151561075257fe5b906000526020600020906002020160000160019054906101000a900460ff1660028381548110151561078057fe5b9060005260206000209060020201600101808054600181600116156101000203166002900480601f0160208091040260200160405190810160405280929190818152602001828054600181600116156101000203166002900480156108265780601f106107fb57610100808354040283529160200191610826565b820191906000526020600020905b81548152906001019060200180831161080957829003601f168201915b50505050509050935093509350506108b5565b80806001019150506106cd565b506040517f08c379a00000000000000000000000000000000000000000000000000000000081526004018080602001828103825260118152602001807f50726f64756374206e6f7420666f756e6400000000000000000000000000000081525060200191505060405180910390fd5b9193909250565b6003600081819054906101000a900460ff168092919060010191906101000a81548160ff021916908360ff160217905550506002606060405190810160405280600360009054906101000a900460ff1660ff1681526020018460ff168152602001838152509080600181540180825580915050906001820390600052602060002090600202016000909192909190915060008201518160000160006101000a81548160ff021916908360ff16021790555060208201518160000160016101000a81548160ff021916908360ff16021790555060408201518160010190805190602001906109aa929190610f23565b505050508160ff16600360009054906101000a900460ff1660ff167f9181679500bdafce1bf16d006f632cd53a7e73395fd81267622d38b16921d5f3836040518080602001828103825283818151815260200191508051906020019080838360005b83811015610a27578082015181840152602081019050610a0c565b50505050905090810190601f168015610a545780820380516001836020036101000a031916815260200191505b509250505060405180910390a35050565b600080606060008090505b600080549050811015610be9578460ff16600082815481101515610a9057fe5b906000526020600020906002020160000160009054906101000a900460ff1660ff161415610bdc57600081815481101515610ac757fe5b906000526020600020906002020160000160009054906101000a900460ff16600082815481101515610af557fe5b906000526020600020906002020160000160019054906101000a900460ff16600083815481101515610b2357fe5b9060005260206000209060020201600101808054600181600116156101000203166002900480601f016020809104026020016040519081016040528092919081815260200182805460018160011615610100020316600290048015610bc95780601f10610b9e57610100808354040283529160200191610bc9565b820191906000526020600020905b815481529060010190602001808311610bac57829003601f168201915b5050505050905093509350935050610c58565b8080600101915050610a70565b506040517f08c379a000000000000000000000000000000000000000000000000000000000815260040180806020018281038252600d8152602001807f506967206e6f7420666f756e640000000000000000000000000000000000000081525060200191505060405180910390fd5b9193909250565b600281815481101515610c6e57fe5b90600052602060002090600202016000915090508060000160009054906101000a900460ff16908060000160019054906101000a900460ff1690806001018054600181600116156101000203166002900480601f016020809104026020016040519081016040528092919081815260200182805460018160011615610100020316600290048015610d405780601f10610d1557610100808354040283529160200191610d40565b820191906000526020600020905b815481529060010190602001808311610d2357829003601f168201915b5050505050905083565b600160009054906101000a900460ff1681565b6001600081819054906101000a900460ff168092919060010191906101000a81548160ff021916908360ff160217905550506000606060405190810160405280600160009054906101000a900460ff1660ff1681526020018460ff168152602001838152509080600181540180825580915050906001820390600052602060002090600202016000909192909190915060008201518160000160006101000a81548160ff021916908360ff16021790555060208201518160000160016101000a81548160ff021916908360ff1602179055506040820151816001019080519060200190610e4b929190610f23565b50505050600160009054906101000a900460ff1660ff167f3d44945a367c40bd351c2224eac7b94d113d8d1f04c53630b90fa5fc2f59a0248383604051808360ff1660ff16815260200180602001828103825283818151815260200191508051906020019080838360005b83811015610ed1578082015181840152602081019050610eb6565b50505050905090810190601f168015610efe5780820380516001836020036101000a031916815260200191505b50935050505060405180910390a25050565b600360009054906101000a900460ff1681565b828054600181600116156101000203166002900490600052602060002090601f016020900481019282601f10610f6457805160ff1916838001178555610f92565b82800160010185558215610f92579182015b82811115610f91578251825591602001919060010190610f76565b5b509050610f9f9190610fa3565b5090565b610fc591905b80821115610fc1576000816000905550600101610fa9565b5090565b9056fea165627a7a723058202d79c661d7ee97d0ebbdf657c4652fb92db1ff77d84c71720c78c2278d104dae0029",
  "source": "// SPDX-License-Identifier: MIT\r\npragma solidity >=0.4.22 <0.9.0;\r\n\r\ncontract PorkChain {\r\n   struct Pig {\r\n        uint8 pigID;\r\n        uint8 pigWeight;\r\n        string pigHealth;\r\n        \r\n    }\r\n\r\n    Pig[] public pigs;\r\n    uint8 public pigCount;\r\n\r\n    event PigAdded(uint8 indexed pigId, uint8 pigWeight, string pigHealth);\r\n\r\n    function addPig(uint8 _pigWeight, string memory _pigHealth) public {\r\n        pigCount++;\r\n        pigs.push(Pig(pigCount, _pigWeight, _pigHealth));\r\n        emit PigAdded(pigCount, _pigWeight, _pigHealth);\r\n    }\r\n\r\n    function getPigDataById(uint8 _pigId) public view returns (uint8 pigID, uint8 pigWeight, string memory pigHealth) {\r\n        for (uint i = 0; i < pigs.length; i++) {\r\n            if (pigs[i].pigID == _pigId) {\r\n                return (pigs[i].pigID, pigs[i].pigWeight, pigs[i].pigHealth);\r\n            }\r\n        }\r\n        revert(\"Pig not found\");\r\n    }\r\n   \r\n  \r\n\r\n\r\n   struct Product {\r\n        uint8 productID;\r\n        uint8 productWeight;\r\n        string productName;\r\n    }\r\n\r\n    Product[] public products;\r\n    uint8 public productCount;\r\n\r\n    event ProductAdded(uint8 indexed productID, uint8 indexed productWeight , string productName);\r\n\r\n    // Function to add a product (only callable by slaughterer)\r\n    function addProduct(uint8 _productWeight, string memory _productName) public {\r\n        productCount++;\r\n        products.push(Product(productCount, _productWeight, _productName));\r\n        emit ProductAdded(productCount, _productWeight, _productName);\r\n    }\r\n\r\n    // Function to get product data by ID\r\n    function getProductDataById(uint8 _productID) public view returns (uint8 productID, uint8 productWeight, string memory productName) {\r\n        for (uint i = 0; i < products.length; i++) {\r\n            if (products[i].productID == _productID) {\r\n                return (products[i].productID, products[i].productWeight, products[i].productName);\r\n            }\r\n        }\r\n        revert(\"Product not found\");\r\n    }\r\n\r\n}",
  "sourcePath": "C:\\Porkchain\\PorkchainJaa\\porkchainz\\contracts\\PorkChain.sol",
  "compiler": {
    "name": "solc",
    "version": "0.5.1+commit.c8a2cb62.Emscripten.clang"
  },
  "schemaVersion": "3.4.16",
  "updatedAt": "2024-04-07T20:07:09.078Z",
  "devdoc": {
    "methods": {}
  },
  "userdoc": {
    "methods": {}
  }
}