{
  "contractName": "PorkChain",
  "abi": [
    {
      "constant": true,
      "inputs": [
        {
          "name": "",
          "type": "uint256"
        }
      ],
      "name": "pigs",
      "outputs": [
        {
          "name": "pigID",
          "type": "uint8"
        },
        {
          "name": "pigWeight",
          "type": "uint8"
        },
        {
          "name": "pigHealth",
          "type": "string"
        }
      ],
      "payable": false,
      "stateMutability": "view",
      "type": "function"
    },
    {
      "constant": true,
      "inputs": [
        {
          "name": "",
          "type": "bytes32"
        }
      ],
      "name": "pigsByHash",
      "outputs": [
        {
          "name": "pigID",
          "type": "uint8"
        },
        {
          "name": "pigWeight",
          "type": "uint8"
        },
        {
          "name": "pigHealth",
          "type": "string"
        }
      ],
      "payable": false,
      "stateMutability": "view",
      "type": "function"
    },
    {
      "constant": true,
      "inputs": [],
      "name": "pigCount",
      "outputs": [
        {
          "name": "",
          "type": "uint8"
        }
      ],
      "payable": false,
      "stateMutability": "view",
      "type": "function"
    },
    {
      "constant": true,
      "inputs": [
        {
          "name": "",
          "type": "uint8"
        }
      ],
      "name": "pigHashes",
      "outputs": [
        {
          "name": "",
          "type": "bytes32"
        }
      ],
      "payable": false,
      "stateMutability": "view",
      "type": "function"
    },
    {
      "anonymous": false,
      "inputs": [
        {
          "indexed": true,
          "name": "pigId",
          "type": "uint8"
        },
        {
          "indexed": false,
          "name": "pigWeight",
          "type": "uint8"
        },
        {
          "indexed": false,
          "name": "pigHealth",
          "type": "string"
        }
      ],
      "name": "PigAdded",
      "type": "event"
    },
    {
      "constant": false,
      "inputs": [
        {
          "name": "_pigWeight",
          "type": "uint8"
        },
        {
          "name": "_pigHealth",
          "type": "string"
        }
      ],
      "name": "addPig",
      "outputs": [],
      "payable": false,
      "stateMutability": "nonpayable",
      "type": "function"
    },
    {
      "constant": true,
      "inputs": [
        {
          "name": "pigHash",
          "type": "bytes32"
        }
      ],
      "name": "getPigDataByHash",
      "outputs": [
        {
          "name": "",
          "type": "uint8"
        },
        {
          "name": "",
          "type": "uint8"
        },
        {
          "name": "",
          "type": "string"
        }
      ],
      "payable": false,
      "stateMutability": "view",
      "type": "function"
    }
  ],
  "bytecode": "0x608060405234801561001057600080fd5b50610b58806100206000396000f3fe608060405260043610610072576000357c0100000000000000000000000000000000000000000000000000000000900480631d0316de146100775780635980529114610145578063af81aac114610213578063d4756c7914610244578063de6cab3314610319578063f11c6027146103e7575b600080fd5b34801561008357600080fd5b506100b06004803603602081101561009a57600080fd5b8101908080359060200190929190505050610439565b604051808460ff1660ff1681526020018360ff1660ff16815260200180602001828103825283818151815260200191508051906020019080838360005b838110156101085780820151818401526020810190506100ed565b50505050905090810190601f1680156101355780820380516001836020036101000a031916815260200191505b5094505050505060405180910390f35b34801561015157600080fd5b5061017e6004803603602081101561016857600080fd5b8101908080359060200190929190505050610524565b604051808460ff1660ff1681526020018360ff1660ff16815260200180602001828103825283818151815260200191508051906020019080838360005b838110156101d65780820151818401526020810190506101bb565b50505050905090810190601f1680156102035780820380516001836020036101000a031916815260200191505b5094505050505060405180910390f35b34801561021f57600080fd5b50610228610600565b604051808260ff1660ff16815260200191505060405180910390f35b34801561025057600080fd5b506103176004803603604081101561026757600080fd5b81019080803560ff1690602001909291908035906020019064010000000081111561029157600080fd5b8201836020820111156102a357600080fd5b803590602001918460018302840111640100000000831117156102c557600080fd5b91908080601f016020809104026020016040519081016040528093929190818152602001838380828437600081840152601f19601f820116905080830192505050505050509192919290505050610613565b005b34801561032557600080fd5b506103526004803603602081101561033c57600080fd5b8101908080359060200190929190505050610981565b604051808460ff1660ff1681526020018360ff1660ff16815260200180602001828103825283818151815260200191508051906020019080838360005b838110156103aa57808201518184015260208101905061038f565b50505050905090810190601f1680156103d75780820380516001836020036101000a031916815260200191505b5094505050505060405180910390f35b3480156103f357600080fd5b506104236004803603602081101561040a57600080fd5b81019080803560ff169060200190929190505050610a6f565b6040518082815260200191505060405180910390f35b60008181548110151561044857fe5b90600052602060002090600202016000915090508060000160009054906101000a900460ff16908060000160019054906101000a900460ff1690806001018054600181600116156101000203166002900480601f01602080910402602001604051908101604052809291908181526020018280546001816001161561010002031660029004801561051a5780601f106104ef5761010080835404028352916020019161051a565b820191906000526020600020905b8154815290600101906020018083116104fd57829003601f168201915b5050505050905083565b60016020528060005260406000206000915090508060000160009054906101000a900460ff16908060000160019054906101000a900460ff1690806001018054600181600116156101000203166002900480601f0160208091040260200160405190810160405280929190818152602001828054600181600116156101000203166002900480156105f65780601f106105cb576101008083540402835291602001916105f6565b820191906000526020600020905b8154815290600101906020018083116105d957829003601f168201915b5050505050905083565b600360009054906101000a900460ff1681565b6003600081819054906101000a900460ff168092919060010191906101000a81548160ff021916908360ff160217905550506000600360009054906101000a900460ff168383604051602001808460ff1660ff167f01000000000000000000000000000000000000000000000000000000000000000281526001018360ff1660ff167f010000000000000000000000000000000000000000000000000000000000000002815260010182805190602001908083835b6020831015156106ed57805182526020820191506020810190506020830392506106c8565b6001836020036101000a0380198251168184511680821785525050505050509050019350505050604051602081830303815290604052805190602001209050606060405190810160405280600360009054906101000a900460ff1660ff1681526020018460ff168152602001838152506001600083815260200190815260200160002060008201518160000160006101000a81548160ff021916908360ff16021790555060208201518160000160016101000a81548160ff021916908360ff16021790555060408201518160010190805190602001906107ce929190610a87565b509050508060026000600360009054906101000a900460ff1660ff1660ff168152602001908152602001600020819055506000606060405190810160405280600360009054906101000a900460ff1660ff1681526020018560ff168152602001848152509080600181540180825580915050906001820390600052602060002090600202016000909192909190915060008201518160000160006101000a81548160ff021916908360ff16021790555060208201518160000160016101000a81548160ff021916908360ff16021790555060408201518160010190805190602001906108bb929190610a87565b50505050600360009054906101000a900460ff1660ff167f3d44945a367c40bd351c2224eac7b94d113d8d1f04c53630b90fa5fc2f59a0248484604051808360ff1660ff16815260200180602001828103825283818151815260200191508051906020019080838360005b83811015610941578082015181840152602081019050610926565b50505050905090810190601f16801561096e5780820380516001836020036101000a031916815260200191505b50935050505060405180910390a2505050565b600080606060006001600086815260200190815260200160002090508060000160009054906101000a900460ff168160000160019054906101000a900460ff1682600101808054600181600116156101000203166002900480601f016020809104026020016040519081016040528092919081815260200182805460018160011615610100020316600290048015610a5a5780601f10610a2f57610100808354040283529160200191610a5a565b820191906000526020600020905b815481529060010190602001808311610a3d57829003601f168201915b50505050509050935093509350509193909250565b60026020528060005260406000206000915090505481565b828054600181600116156101000203166002900490600052602060002090601f016020900481019282601f10610ac857805160ff1916838001178555610af6565b82800160010185558215610af6579182015b82811115610af5578251825591602001919060010190610ada565b5b509050610b039190610b07565b5090565b610b2991905b80821115610b25576000816000905550600101610b0d565b5090565b9056fea165627a7a723058207a2d20780a2980df83c1b8aaa75bd9e4123d1f5f7b0a9fab21a0a2fb135dc15a0029",
  "source": "// SPDX-License-Identifier: MIT\r\npragma solidity >=0.4.22 <0.9.0;\r\n\r\ncontract PorkChain {\r\n   struct Pig {\r\n        uint8 pigID;\r\n        uint8 pigWeight;\r\n        string pigHealth;\r\n    }\r\n\r\n    Pig[] public pigs;\r\n    mapping(bytes32 => Pig) public pigsByHash;\r\n    mapping(uint8 => bytes32) public pigHashes;\r\n    uint8 public pigCount;\r\n\r\n    event PigAdded(uint8 indexed pigId, uint8 pigWeight, string pigHealth);\r\n\r\n    function addPig(uint8 _pigWeight, string memory _pigHealth) public {\r\n        pigCount++;\r\n        bytes32 pigHash = keccak256(abi.encodePacked(pigCount, _pigWeight, _pigHealth));\r\n        pigsByHash[pigHash] = Pig(pigCount, _pigWeight, _pigHealth);\r\n        pigHashes[pigCount] = pigHash;\r\n        pigs.push(Pig(pigCount, _pigWeight, _pigHealth));\r\n        emit PigAdded(pigCount, _pigWeight, _pigHealth);\r\n    }\r\n\r\n    function getPigDataByHash(bytes32 pigHash) public view returns (uint8, uint8, string memory) {\r\n        Pig storage pig = pigsByHash[pigHash];\r\n        return (pig.pigID, pig.pigWeight, pig.pigHealth);\r\n    }\r\n}\r\n\r\n// contract PorkChain {\r\n//     struct Pig {\r\n//         uint8 pigID;\r\n//         uint8 pigWeight;\r\n//         string pigHealth;\r\n//     }\r\n\r\n//     Pig[] public pigs;\r\n//     uint8 public pigCount;\r\n\r\n//     event PigAdded(uint8 indexed pigId, uint8 pigWeight, string pigHealth);\r\n\r\n//     function addPig(uint8 _pigWeight, string memory _pigHealth) public {\r\n//         pigCount++;\r\n//         pigs.push(Pig(pigCount, _pigWeight, _pigHealth));\r\n//         emit PigAdded(pigCount, _pigWeight, _pigHealth);\r\n//     }\r\n\r\n//     function getPigDataById(uint8 _pigId) public view returns (uint8 pigID, uint8 pigWeight, string memory pigHealth) {\r\n//         for (uint i = 0; i < pigs.length; i++) {\r\n//             if (pigs[i].pigID == _pigId) {\r\n//                 return (pigs[i].pigID, pigs[i].pigWeight, pigs[i].pigHealth);\r\n//             }\r\n//         }\r\n//         revert(\"Pig not found\");\r\n//     }\r\n// }\r\n// contract PorkChain {\r\n//     address public owner;\r\n\r\n//     struct Pig {\r\n//         uint8 pigID;\r\n//         uint8 pigWeight;\r\n//         string pigStartDate;\r\n//         string pigEndDate;\r\n//         string pigBreed;\r\n//         string pigHealth;\r\n//         uint8 batchID;\r\n//     }\r\n\r\n//     struct Batch {\r\n//         uint8 batchID;\r\n//         string batchName;\r\n//         uint8 batchWeight;\r\n//         uint8 batchQuantity;\r\n//         string batchDescription;\r\n//         uint8[] pigIDs;\r\n//     }\r\n    \r\n//     struct Product {\r\n//         uint8 productID;\r\n//         uint8 batchID;\r\n//         string productName;\r\n//         uint8 productWeight;\r\n//         string productDate;\r\n//     }\r\n\r\n//     Pig[] public pigs;\r\n//     Batch[] public batches;\r\n//     Product[] public products;\r\n//     uint8 public pigCount;\r\n//     uint8 public batchCount;\r\n//     uint8 public productCount;\r\n//     uint256 public shipmentCount;\r\n\r\n//     event PigAdded(uint8 indexed pigId, uint8 pigWeight, string pigStartDate, string pigHealth, string pigEndDate, string pigBreed, uint8 batchID);\r\n//     event BatchAdded(uint8 indexed batchId, string batchName, uint8 batchWeight, uint8 batchQuantity, string batchDescription);\r\n//     event ProductAdded(uint8 productID, uint8 batchID, string productName, uint8 productWeight, string productDate);\r\n//     event ShipmentSent(uint256 shipmentID, uint256 productID, uint256 batchID, string source, string destination, string sendDate, string estimateArrivalDate);\r\n\r\n//     constructor() {\r\n//         owner = msg.sender;\r\n//     }\r\n\r\n//     function addPig(uint8 _pigWeight, string memory _pigStartDate, string memory _pigEndDate, string memory _pigBreed, string memory _pigHealth, uint8 _batchID) public {\r\n//         pigCount++;\r\n//         pigs.push(Pig(pigCount, _pigWeight, _pigStartDate, _pigEndDate, _pigBreed, _pigHealth, _batchID));\r\n//         emit PigAdded(pigCount, _pigWeight, _pigStartDate, _pigHealth, _pigEndDate, _pigBreed, _batchID);\r\n//     }\r\n\r\n//     function addBatch(string memory _batchName, string memory _batchDescription, uint8[] memory _pigIDs) public {\r\n//         uint8 totalWeight;\r\n//         uint8 totalPigs = uint8(_pigIDs.length);\r\n\r\n//         for (uint8 i = 0; i < totalPigs; i++) {\r\n//             totalWeight += pigs[_pigIDs[i] - 1].pigWeight;\r\n//         }\r\n\r\n//         batchCount++;\r\n\r\n//         batches.push(Batch(batchCount, _batchName, totalWeight, totalPigs, _batchDescription, _pigIDs));\r\n\r\n//         emit BatchAdded(batchCount, _batchName, totalWeight, totalPigs, _batchDescription);\r\n\r\n//         for (uint8 i = 0; i < totalPigs; i++) {\r\n//             pigs[_pigIDs[i] - 1].batchID = batchCount;\r\n//             emit PigAdded(pigs[_pigIDs[i] - 1].pigID, pigs[_pigIDs[i] - 1].pigWeight, pigs[_pigIDs[i] - 1].pigStartDate, pigs[_pigIDs[i] - 1].pigHealth, pigs[_pigIDs[i] - 1].pigEndDate, pigs[_pigIDs[i] - 1].pigBreed, batchCount);\r\n//         }\r\n//     }\r\n\r\n//     function addProduct(uint8 _batchID, string memory _productName, uint8 _productWeight, string memory _productDate) public {\r\n//         require(_batchID > 0 && _batchID <= batchCount, \"Invalid batch ID\");\r\n        \r\n//         productCount++;\r\n//         products.push(Product(productCount, _batchID, _productName, _productWeight, _productDate));\r\n//         emit ProductAdded(productCount, _batchID, _productName, _productWeight, _productDate);\r\n//     }\r\n\r\n//     function sendShipment(uint8 _productID, string memory _source, string memory _destination, string memory _sendDate, string memory _estimateArrivalDate) public {\r\n//         shipmentCount++;\r\n//         uint8 batchID;\r\n//         for(uint8 i = 0; i < products.length; i++) {\r\n//             if(products[i].productID == _productID) {\r\n//                 batchID = products[i].batchID;\r\n//                 break;\r\n//             }\r\n//         }\r\n//         emit ShipmentSent(shipmentCount, _productID, batchID, _source, _destination, _sendDate, _estimateArrivalDate);\r\n//     }\r\n\r\n//     function getShipmentJourney(uint256 _shipmentID) public view returns (\r\n//     uint8 pigID,\r\n//     string memory pigStartDate,\r\n//     uint8 pigWeight,\r\n//     string memory pigEndDate,\r\n//     uint8 pigBatchID,\r\n//     string memory pigHealth,\r\n//     uint8 batchID,\r\n//     string memory batchName,\r\n//     uint8 batchQuantity,\r\n//     string memory productDate\r\n// ) {\r\n//     require(_shipmentID > 0 && _shipmentID <= shipmentCount, \"Invalid shipment ID\");\r\n\r\n//     uint8 index = uint8(_shipmentID) - 1; \r\n\r\n//     Pig memory pig = pigs[index];\r\n\r\n//     Batch memory batch = batches[pig.batchID - 1];\r\n\r\n//     Product memory product;\r\n//     for(uint8 i = 0; i < products.length; i++) {\r\n//         if(products[i].batchID == batch.batchID) {\r\n//             product = products[i];\r\n//             break;\r\n//         }\r\n//     }\r\n\r\n//     return (\r\n//         pig.pigID,\r\n//         pig.pigStartDate,\r\n//         pig.pigWeight,\r\n//         pig.pigEndDate,\r\n//         pig.batchID,\r\n//         pig.pigHealth,\r\n//         batch.batchID,\r\n//         batch.batchName,\r\n//         batch.batchQuantity,\r\n//         product.productDate\r\n//     );\r\n// }\r\n\r\n//}\r\n//         string pigHealth;\r\n//     }\r\n\r\n//     Pig[] public pigs;\r\n//     uint8 public pigCount;\r\n\r\n//     event PigAdded(uint8 indexed pigId, uint8 pigWeight, string pigHealth);\r\n\r\n//     function addPig(uint8 _pigWeight, string memory _pigHealth) public {\r\n//         pigCount++;\r\n//         pigs.push(Pig(pigCount, _pigWeight, _pigHealth));\r\n//         emit PigAdded(pigCount, _pigWeight, _pigHealth);\r\n//     }\r\n\r\n//     function getPigDataById(uint8 _pigId) public view returns (uint8 pigID, uint8 pigWeight, string memory pigHealth) {\r\n//         for (uint i = 0; i < pigs.length; i++) {\r\n//             if (pigs[i].pigID == _pigId) {\r\n//                 return (pigs[i].pigID, pigs[i].pigWeight, pigs[i].pigHealth);\r\n//             }\r\n//         }\r\n//         revert(\"Pig not found\");\r\n//     }\r\n// }\r\n",
  "sourcePath": "D:\\Coding\\KMUTNB Coding\\Blockchain\\porkchain\\contracts\\PorkChain.sol",
  "compiler": {
    "name": "solc",
    "version": "0.5.1+commit.c8a2cb62.Emscripten.clang"
  },
  "schemaVersion": "3.4.16",
  "updatedAt": "2024-04-07T20:56:56.098Z",
  "devdoc": {
    "methods": {}
  },
  "userdoc": {
    "methods": {}
  }
}