{
  "contractName": "PorkChain",
  "abi": [
    {
      "constant": true,
      "inputs": [
        {
          "name": "",
          "type": "uint256"
        }
      ],
      "name": "pigs",
      "outputs": [
        {
          "name": "pigID",
          "type": "uint8"
        },
        {
          "name": "pigWeight",
          "type": "uint8"
        },
        {
          "name": "pigHealth",
          "type": "string"
        }
      ],
      "payable": false,
      "stateMutability": "view",
      "type": "function"
    },
    {
      "constant": true,
      "inputs": [
        {
          "name": "",
          "type": "uint256"
        }
      ],
      "name": "products",
      "outputs": [
        {
          "name": "productID",
          "type": "uint8"
        },
        {
          "name": "productWeight",
          "type": "uint8"
        },
        {
          "name": "productName",
          "type": "string"
        }
      ],
      "payable": false,
      "stateMutability": "view",
      "type": "function"
    },
    {
      "constant": true,
      "inputs": [],
      "name": "pigCount",
      "outputs": [
        {
          "name": "",
          "type": "uint8"
        }
      ],
      "payable": false,
      "stateMutability": "view",
      "type": "function"
    },
    {
      "constant": true,
      "inputs": [],
      "name": "productCount",
      "outputs": [
        {
          "name": "",
          "type": "uint8"
        }
      ],
      "payable": false,
      "stateMutability": "view",
      "type": "function"
    },
    {
      "anonymous": false,
      "inputs": [
        {
          "indexed": true,
          "name": "pigId",
          "type": "uint8"
        },
        {
          "indexed": false,
          "name": "pigWeight",
          "type": "uint8"
        },
        {
          "indexed": false,
          "name": "pigHealth",
          "type": "string"
        }
      ],
      "name": "PigAdded",
      "type": "event"
    },
    {
      "anonymous": false,
      "inputs": [
        {
          "indexed": true,
          "name": "productID",
          "type": "uint8"
        },
        {
          "indexed": true,
          "name": "productWeight",
          "type": "uint8"
        },
        {
          "indexed": false,
          "name": "productName",
          "type": "string"
        }
      ],
      "name": "ProductAdded",
      "type": "event"
    },
    {
      "constant": false,
      "inputs": [
        {
          "name": "_pigWeight",
          "type": "uint8"
        },
        {
          "name": "_pigHealth",
          "type": "string"
        }
      ],
      "name": "addPig",
      "outputs": [],
      "payable": false,
      "stateMutability": "nonpayable",
      "type": "function"
    },
    {
      "constant": true,
      "inputs": [
        {
          "name": "_pigId",
          "type": "uint8"
        }
      ],
      "name": "getPigDataById",
      "outputs": [
        {
          "name": "pigID",
          "type": "uint8"
        },
        {
          "name": "pigWeight",
          "type": "uint8"
        },
        {
          "name": "pigHealth",
          "type": "string"
        }
      ],
      "payable": false,
      "stateMutability": "view",
      "type": "function"
    }
  ],
  "bytecode": "0x608060405234801561001057600080fd5b50610882806100206000396000f3fe60806040526004361061005c576000357c0100000000000000000000000000000000000000000000000000000000900480631d0316de146100615780636ac9bc081461012f578063af81aac114610200578063d4756c7914610231575b600080fd5b34801561006d57600080fd5b5061009a6004803603602081101561008457600080fd5b8101908080359060200190929190505050610306565b604051808460ff1660ff1681526020018360ff1660ff16815260200180602001828103825283818151815260200191508051906020019080838360005b838110156100f25780820151818401526020810190506100d7565b50505050905090810190601f16801561011f5780820380516001836020036101000a031916815260200191505b5094505050505060405180910390f35b34801561013b57600080fd5b5061016b6004803603602081101561015257600080fd5b81019080803560ff1690602001909291905050506103f1565b604051808460ff1660ff1681526020018360ff1660ff16815260200180602001828103825283818151815260200191508051906020019080838360005b838110156101c35780820151818401526020810190506101a8565b50505050905090810190601f1680156101f05780820380516001836020036101000a031916815260200191505b5094505050505060405180910390f35b34801561020c57600080fd5b506102156105eb565b604051808260ff1660ff16815260200191505060405180910390f35b34801561023d57600080fd5b506103046004803603604081101561025457600080fd5b81019080803560ff1690602001909291908035906020019064010000000081111561027e57600080fd5b82018360208201111561029057600080fd5b803590602001918460018302840111640100000000831117156102b257600080fd5b91908080601f016020809104026020016040519081016040528093929190818152602001838380828437600081840152601f19601f8201169050808301925050505050505091929192905050506105fe565b005b60008181548110151561031557fe5b90600052602060002090600202016000915090508060000160009054906101000a900460ff16908060000160019054906101000a900460ff1690806001018054600181600116156101000203166002900480601f0160208091040260200160405190810160405280929190818152602001828054600181600116156101000203166002900480156103e75780601f106103bc576101008083540402835291602001916103e7565b820191906000526020600020905b8154815290600101906020018083116103ca57829003601f168201915b5050505050905083565b600080606060008090505b600080549050811015610575578460ff1660008281548110151561041c57fe5b906000526020600020906002020160000160009054906101000a900460ff1660ff1614156105685760008181548110151561045357fe5b906000526020600020906002020160000160009054906101000a900460ff1660008281548110151561048157fe5b906000526020600020906002020160000160019054906101000a900460ff166000838154811015156104af57fe5b9060005260206000209060020201600101808054600181600116156101000203166002900480601f0160208091040260200160405190810160405280929190818152602001828054600181600116156101000203166002900480156105555780601f1061052a57610100808354040283529160200191610555565b820191906000526020600020905b81548152906001019060200180831161053857829003601f168201915b50505050509050935093509350506105e4565b80806001019150506103fc565b506040517f08c379a000000000000000000000000000000000000000000000000000000000815260040180806020018281038252600d8152602001807f506967206e6f7420666f756e640000000000000000000000000000000000000081525060200191505060405180910390fd5b9193909250565b600160009054906101000a900460ff1681565b6001600081819054906101000a900460ff168092919060010191906101000a81548160ff021916908360ff160217905550506000606060405190810160405280600160009054906101000a900460ff1660ff1681526020018460ff168152602001838152509080600181540180825580915050906001820390600052602060002090600202016000909192909190915060008201518160000160006101000a81548160ff021916908360ff16021790555060208201518160000160016101000a81548160ff021916908360ff16021790555060408201518160010190805190602001906106ec9291906107b1565b50505050600160009054906101000a900460ff1660ff167f3d44945a367c40bd351c2224eac7b94d113d8d1f04c53630b90fa5fc2f59a0248383604051808360ff1660ff16815260200180602001828103825283818151815260200191508051906020019080838360005b83811015610772578082015181840152602081019050610757565b50505050905090810190601f16801561079f5780820380516001836020036101000a031916815260200191505b50935050505060405180910390a25050565b828054600181600116156101000203166002900490600052602060002090601f016020900481019282601f106107f257805160ff1916838001178555610820565b82800160010185558215610820579182015b8281111561081f578251825591602001919060010190610804565b5b50905061082d9190610831565b5090565b61085391905b8082111561084f576000816000905550600101610837565b5090565b9056fea165627a7a72305820806e499f9e57f1f88d47869aeb227a9eb99bf5160ae2ca0d732be32c1d11852c0029",
  "source": "// SPDX-License-Identifier: MIT\r\npragma solidity >=0.4.22 <0.9.0;\r\n\r\ncontract PorkChain {\r\n    struct Pig {\r\n        uint8 pigID;\r\n        uint8 pigWeight;\r\n        string pigHealth;\r\n    }\r\n\r\n    Pig[] public pigs;\r\n    uint8 public pigCount;\r\n\r\n    event PigAdded(uint8 indexed pigId, uint8 pigWeight, string pigHealth);\r\n\r\n    function addPig(uint8 _pigWeight, string memory _pigHealth) public {\r\n        pigCount++;\r\n        pigs.push(Pig(pigCount, _pigWeight, _pigHealth));\r\n        emit PigAdded(pigCount, _pigWeight, _pigHealth);\r\n    }\r\n\r\n    function getPigDataById(uint8 _pigId) public view returns (uint8 pigID, uint8 pigWeight, string memory pigHealth) {\r\n        for (uint i = 0; i < pigs.length; i++) {\r\n            if (pigs[i].pigID == _pigId) {\r\n                return (pigs[i].pigID, pigs[i].pigWeight, pigs[i].pigHealth);\r\n            }\r\n        }\r\n        revert(\"Pig not found\");\r\n    }\r\n}",
  "sourcePath": "C:\\Users\\lalaLyn\\Documents\\GitHub\\porkchainz\\contracts\\PorkChain.sol",
  "compiler": {
    "name": "solc",
    "version": "0.5.1+commit.c8a2cb62.Emscripten.clang"
  },
  "schemaVersion": "3.4.16",
  "updatedAt": "2024-04-07T07:50:51.947Z",
  "networkType": "ethereum",
  "devdoc": {
    "methods": {}
  },
  "userdoc": {
    "methods": {}
  }
}