{
  "contractName": "SupplyChain",
  "abi": [
    {
      "inputs": [],
      "stateMutability": "nonpayable",
      "type": "constructor"
    },
    {
      "anonymous": false,
      "inputs": [
        {
          "indexed": true,
          "internalType": "uint8",
          "name": "batchId",
          "type": "uint8"
        },
        {
          "indexed": false,
          "internalType": "string",
          "name": "batchName",
          "type": "string"
        },
        {
          "indexed": false,
          "internalType": "uint8",
          "name": "batchWeight",
          "type": "uint8"
        },
        {
          "indexed": false,
          "internalType": "uint8",
          "name": "batchQuantity",
          "type": "uint8"
        },
        {
          "indexed": false,
          "internalType": "string",
          "name": "batchDescription",
          "type": "string"
        }
      ],
      "name": "BatchAdded",
      "type": "event"
    },
    {
      "anonymous": false,
      "inputs": [
        {
          "indexed": true,
          "internalType": "uint8",
          "name": "pigId",
          "type": "uint8"
        },
        {
          "indexed": false,
          "internalType": "uint8",
          "name": "pigWeight",
          "type": "uint8"
        },
        {
          "indexed": false,
          "internalType": "string",
          "name": "pigStartDate",
          "type": "string"
        },
        {
          "indexed": false,
          "internalType": "string",
          "name": "pigHealth",
          "type": "string"
        },
        {
          "indexed": false,
          "internalType": "string",
          "name": "pigEndDate",
          "type": "string"
        },
        {
          "indexed": false,
          "internalType": "string",
          "name": "pigBreed",
          "type": "string"
        },
        {
          "indexed": false,
          "internalType": "uint8",
          "name": "batchID",
          "type": "uint8"
        }
      ],
      "name": "PigAdded",
      "type": "event"
    },
    {
      "anonymous": false,
      "inputs": [
        {
          "indexed": false,
          "internalType": "uint8",
          "name": "productID",
          "type": "uint8"
        },
        {
          "indexed": false,
          "internalType": "uint8",
          "name": "batchID",
          "type": "uint8"
        },
        {
          "indexed": false,
          "internalType": "string",
          "name": "productName",
          "type": "string"
        },
        {
          "indexed": false,
          "internalType": "uint8",
          "name": "productWeight",
          "type": "uint8"
        },
        {
          "indexed": false,
          "internalType": "string",
          "name": "productDate",
          "type": "string"
        }
      ],
      "name": "ProductAdded",
      "type": "event"
    },
    {
      "anonymous": false,
      "inputs": [
        {
          "indexed": false,
          "internalType": "uint256",
          "name": "shipmentID",
          "type": "uint256"
        },
        {
          "indexed": false,
          "internalType": "uint256",
          "name": "productID",
          "type": "uint256"
        },
        {
          "indexed": false,
          "internalType": "uint256",
          "name": "batchID",
          "type": "uint256"
        },
        {
          "indexed": false,
          "internalType": "string",
          "name": "source",
          "type": "string"
        },
        {
          "indexed": false,
          "internalType": "string",
          "name": "destination",
          "type": "string"
        },
        {
          "indexed": false,
          "internalType": "string",
          "name": "sendDate",
          "type": "string"
        },
        {
          "indexed": false,
          "internalType": "string",
          "name": "estimateArrivalDate",
          "type": "string"
        }
      ],
      "name": "ShipmentSent",
      "type": "event"
    },
    {
      "inputs": [],
      "name": "batchCount",
      "outputs": [
        {
          "internalType": "uint8",
          "name": "",
          "type": "uint8"
        }
      ],
      "stateMutability": "view",
      "type": "function"
    },
    {
      "inputs": [
        {
          "internalType": "uint256",
          "name": "",
          "type": "uint256"
        }
      ],
      "name": "batches",
      "outputs": [
        {
          "internalType": "uint8",
          "name": "batchID",
          "type": "uint8"
        },
        {
          "internalType": "string",
          "name": "batchName",
          "type": "string"
        },
        {
          "internalType": "uint8",
          "name": "batchWeight",
          "type": "uint8"
        },
        {
          "internalType": "uint8",
          "name": "batchQuantity",
          "type": "uint8"
        },
        {
          "internalType": "string",
          "name": "batchDescription",
          "type": "string"
        }
      ],
      "stateMutability": "view",
      "type": "function"
    },
    {
      "inputs": [],
      "name": "owner",
      "outputs": [
        {
          "internalType": "address",
          "name": "",
          "type": "address"
        }
      ],
      "stateMutability": "view",
      "type": "function"
    },
    {
      "inputs": [],
      "name": "pigCount",
      "outputs": [
        {
          "internalType": "uint8",
          "name": "",
          "type": "uint8"
        }
      ],
      "stateMutability": "view",
      "type": "function"
    },
    {
      "inputs": [
        {
          "internalType": "uint256",
          "name": "",
          "type": "uint256"
        }
      ],
      "name": "pigs",
      "outputs": [
        {
          "internalType": "uint8",
          "name": "pigID",
          "type": "uint8"
        },
        {
          "internalType": "uint8",
          "name": "pigWeight",
          "type": "uint8"
        },
        {
          "internalType": "string",
          "name": "pigStartDate",
          "type": "string"
        },
        {
          "internalType": "string",
          "name": "pigEndDate",
          "type": "string"
        },
        {
          "internalType": "string",
          "name": "pigBreed",
          "type": "string"
        },
        {
          "internalType": "string",
          "name": "pigHealth",
          "type": "string"
        },
        {
          "internalType": "uint8",
          "name": "batchID",
          "type": "uint8"
        }
      ],
      "stateMutability": "view",
      "type": "function"
    },
    {
      "inputs": [],
      "name": "productCount",
      "outputs": [
        {
          "internalType": "uint8",
          "name": "",
          "type": "uint8"
        }
      ],
      "stateMutability": "view",
      "type": "function"
    },
    {
      "inputs": [
        {
          "internalType": "uint256",
          "name": "",
          "type": "uint256"
        }
      ],
      "name": "products",
      "outputs": [
        {
          "internalType": "uint8",
          "name": "productID",
          "type": "uint8"
        },
        {
          "internalType": "uint8",
          "name": "batchID",
          "type": "uint8"
        },
        {
          "internalType": "string",
          "name": "productName",
          "type": "string"
        },
        {
          "internalType": "uint8",
          "name": "productWeight",
          "type": "uint8"
        },
        {
          "internalType": "string",
          "name": "productDate",
          "type": "string"
        }
      ],
      "stateMutability": "view",
      "type": "function"
    },
    {
      "inputs": [],
      "name": "shipmentCount",
      "outputs": [
        {
          "internalType": "uint256",
          "name": "",
          "type": "uint256"
        }
      ],
      "stateMutability": "view",
      "type": "function"
    },
    {
      "inputs": [
        {
          "internalType": "uint8",
          "name": "_pigWeight",
          "type": "uint8"
        },
        {
          "internalType": "string",
          "name": "_pigStartDate",
          "type": "string"
        },
        {
          "internalType": "string",
          "name": "_pigEndDate",
          "type": "string"
        },
        {
          "internalType": "string",
          "name": "_pigBreed",
          "type": "string"
        },
        {
          "internalType": "string",
          "name": "_pigHealth",
          "type": "string"
        },
        {
          "internalType": "uint8",
          "name": "_batchID",
          "type": "uint8"
        }
      ],
      "name": "addPig",
      "outputs": [],
      "stateMutability": "nonpayable",
      "type": "function"
    },
    {
      "inputs": [
        {
          "internalType": "string",
          "name": "_batchName",
          "type": "string"
        },
        {
          "internalType": "string",
          "name": "_batchDescription",
          "type": "string"
        },
        {
          "internalType": "uint8[]",
          "name": "_pigIDs",
          "type": "uint8[]"
        }
      ],
      "name": "addBatch",
      "outputs": [],
      "stateMutability": "nonpayable",
      "type": "function"
    },
    {
      "inputs": [
        {
          "internalType": "uint8",
          "name": "_batchID",
          "type": "uint8"
        },
        {
          "internalType": "string",
          "name": "_productName",
          "type": "string"
        },
        {
          "internalType": "uint8",
          "name": "_productWeight",
          "type": "uint8"
        },
        {
          "internalType": "string",
          "name": "_productDate",
          "type": "string"
        }
      ],
      "name": "addProduct",
      "outputs": [],
      "stateMutability": "nonpayable",
      "type": "function"
    },
    {
      "inputs": [
        {
          "internalType": "uint8",
          "name": "_productID",
          "type": "uint8"
        },
        {
          "internalType": "string",
          "name": "_source",
          "type": "string"
        },
        {
          "internalType": "string",
          "name": "_destination",
          "type": "string"
        },
        {
          "internalType": "string",
          "name": "_sendDate",
          "type": "string"
        },
        {
          "internalType": "string",
          "name": "_estimateArrivalDate",
          "type": "string"
        }
      ],
      "name": "sendShipment",
      "outputs": [],
      "stateMutability": "nonpayable",
      "type": "function"
    },
    {
      "inputs": [
        {
          "internalType": "uint256",
          "name": "_shipmentID",
          "type": "uint256"
        }
      ],
      "name": "getShipmentJourney",
      "outputs": [
        {
          "internalType": "uint8",
          "name": "",
          "type": "uint8"
        },
        {
          "internalType": "string",
          "name": "",
          "type": "string"
        },
        {
          "internalType": "uint8",
          "name": "",
          "type": "uint8"
        },
        {
          "internalType": "string",
          "name": "",
          "type": "string"
        },
        {
          "internalType": "uint8",
          "name": "",
          "type": "uint8"
        },
        {
          "internalType": "string",
          "name": "",
          "type": "string"
        },
        {
          "internalType": "uint8",
          "name": "",
          "type": "uint8"
        },
        {
          "internalType": "string",
          "name": "",
          "type": "string"
        },
        {
          "internalType": "uint8",
          "name": "",
          "type": "uint8"
        },
        {
          "internalType": "string",
          "name": "",
          "type": "string"
        }
      ],
      "stateMutability": "view",
      "type": "function"
    }
  ],
  "bytecode": "0x608060405234801561001057600080fd5b50336000806101000a81548173ffffffffffffffffffffffffffffffffffffffff021916908373ffffffffffffffffffffffffffffffffffffffff160217905550612d2d806100606000396000f3fe608060405234801561001057600080fd5b50600436106100cf5760003560e01c80638da5cb5b1161008c578063af81aac111610066578063af81aac114610225578063b32c4d8d14610243578063c6fad41914610277578063e0f6ef8714610293576100cf565b80638da5cb5b146101cd578063a2f8137d146101eb578063aace20b714610207576100cf565b806306f13056146100d45780630d01a3cd146100f25780631d0316de1461010e578063407a46661461014457806349e1c3e1146101605780637acc0b2014610199575b600080fd5b6100dc6102b1565b6040516100e9919061269f565b60405180910390f35b61010c60048036038101906101079190612343565b6102c4565b005b6101286004803603810190610123919061215a565b6104c0565b60405161013b97969594939291906128d4565b60405180910390f35b61015e6004803603810190610159919061225a565b610759565b005b61017a6004803603810190610175919061215a565b61093c565b6040516101909a99989796959493929190612737565b60405180910390f35b6101b360048036038101906101ae919061215a565b6111d9565b6040516101c495949392919061295f565b60405180910390f35b6101d5611356565b6040516101e2919061254b565b60405180910390f35b61020560048036038101906102009190612183565b61137a565b005b61020f6114d7565b60405161021c91906125f9565b60405180910390f35b61022d6114dd565b60405161023a919061269f565b60405180910390f35b61025d6004803603810190610258919061215a565b6114f0565b60405161026e9594939291906127f6565b60405180910390f35b610291600480360381019061028c91906120c3565b61166d565b005b61029b611e06565b6040516102a8919061269f565b60405180910390f35b600460019054906101000a900460ff1681565b60008460ff161180156102ec5750600460019054906101000a900460ff1660ff168460ff1611155b61032b576040517f08c379a0000000000000000000000000000000000000000000000000000000008152600401610322906125d9565b60405180910390fd5b6004600281819054906101000a900460ff168092919061034a90612c01565b91906101000a81548160ff021916908360ff1602179055505060036040518060a00160405280600460029054906101000a900460ff1660ff1681526020018660ff1681526020018581526020018460ff16815260200183815250908060018154018082558091505060019003906000526020600020906004020160009091909190915060008201518160000160006101000a81548160ff021916908360ff16021790555060208201518160000160016101000a81548160ff021916908360ff160217905550604082015181600101908051906020019061042b929190611e19565b5060608201518160020160006101000a81548160ff021916908360ff1602179055506080820151816003019080519060200190610469929190611e19565b5050507f52e142638976efcf1f263db01c87a8301cdefaac57f45cbe6ab3fe5ea3988a46600460029054906101000a900460ff16858585856040516104b295949392919061295f565b60405180910390a150505050565b600181815481106104d057600080fd5b90600052602060002090600602016000915090508060000160009054906101000a900460ff16908060000160019054906101000a900460ff169080600101805461051990612b86565b80601f016020809104026020016040519081016040528092919081815260200182805461054590612b86565b80156105925780601f1061056757610100808354040283529160200191610592565b820191906000526020600020905b81548152906001019060200180831161057557829003601f168201915b5050505050908060020180546105a790612b86565b80601f01602080910402602001604051908101604052809291908181526020018280546105d390612b86565b80156106205780601f106105f557610100808354040283529160200191610620565b820191906000526020600020905b81548152906001019060200180831161060357829003601f168201915b50505050509080600301805461063590612b86565b80601f016020809104026020016040519081016040528092919081815260200182805461066190612b86565b80156106ae5780601f10610683576101008083540402835291602001916106ae565b820191906000526020600020905b81548152906001019060200180831161069157829003601f168201915b5050505050908060040180546106c390612b86565b80601f01602080910402602001604051908101604052809291908181526020018280546106ef90612b86565b801561073c5780601f106107115761010080835404028352916020019161073c565b820191906000526020600020905b81548152906001019060200180831161071f57829003601f168201915b5050505050908060050160009054906101000a900460ff16905087565b6004600081819054906101000a900460ff168092919061077890612c01565b91906101000a81548160ff021916908360ff1602179055505060016040518060e00160405280600460009054906101000a900460ff1660ff1681526020018860ff1681526020018781526020018681526020018581526020018481526020018360ff16815250908060018154018082558091505060019003906000526020600020906006020160009091909190915060008201518160000160006101000a81548160ff021916908360ff16021790555060208201518160000160016101000a81548160ff021916908360ff1602179055506040820151816001019080519060200190610865929190611e19565b506060820151816002019080519060200190610882929190611e19565b50608082015181600301908051906020019061089f929190611e19565b5060a08201518160040190805190602001906108bc929190611e19565b5060c08201518160050160006101000a81548160ff021916908360ff1602179055505050600460009054906101000a900460ff1660ff167fa3738aba56ffbb33301f24899f35f33fbe32bcbc58fa164958f7471288e8818e87878588888760405161092c969594939291906126ba565b60405180910390a2505050505050565b600060606000606060006060600060606000606060008b11801561096257506005548b11155b6109a1576040517f08c379a0000000000000000000000000000000000000000000000000000000008152600401610998906125b9565b60405180910390fd5b600060018c6109b09190612ab5565b9050600060018260ff16815481106109f1577f4e487b7100000000000000000000000000000000000000000000000000000000600052603260045260246000fd5b90600052602060002090600602016040518060e00160405290816000820160009054906101000a900460ff1660ff1660ff1681526020016000820160019054906101000a900460ff1660ff1660ff168152602001600182018054610a5490612b86565b80601f0160208091040260200160405190810160405280929190818152602001828054610a8090612b86565b8015610acd5780601f10610aa257610100808354040283529160200191610acd565b820191906000526020600020905b815481529060010190602001808311610ab057829003601f168201915b50505050508152602001600282018054610ae690612b86565b80601f0160208091040260200160405190810160405280929190818152602001828054610b1290612b86565b8015610b5f5780601f10610b3457610100808354040283529160200191610b5f565b820191906000526020600020905b815481529060010190602001808311610b4257829003601f168201915b50505050508152602001600382018054610b7890612b86565b80601f0160208091040260200160405190810160405280929190818152602001828054610ba490612b86565b8015610bf15780601f10610bc657610100808354040283529160200191610bf1565b820191906000526020600020905b815481529060010190602001808311610bd457829003601f168201915b50505050508152602001600482018054610c0a90612b86565b80601f0160208091040260200160405190810160405280929190818152602001828054610c3690612b86565b8015610c835780601f10610c5857610100808354040283529160200191610c83565b820191906000526020600020905b815481529060010190602001808311610c6657829003601f168201915b505050505081526020016005820160009054906101000a900460ff1660ff1660ff168152505090506000600260018360c00151610cc09190612ab5565b60ff1681548110610cfa577f4e487b7100000000000000000000000000000000000000000000000000000000600052603260045260246000fd5b90600052602060002090600502016040518060c00160405290816000820160009054906101000a900460ff1660ff1660ff168152602001600182018054610d4090612b86565b80601f0160208091040260200160405190810160405280929190818152602001828054610d6c90612b86565b8015610db95780601f10610d8e57610100808354040283529160200191610db9565b820191906000526020600020905b815481529060010190602001808311610d9c57829003601f168201915b505050505081526020016002820160009054906101000a900460ff1660ff1660ff1681526020016002820160019054906101000a900460ff1660ff1660ff168152602001600382018054610e0c90612b86565b80601f0160208091040260200160405190810160405280929190818152602001828054610e3890612b86565b8015610e855780601f10610e5a57610100808354040283529160200191610e85565b820191906000526020600020905b815481529060010190602001808311610e6857829003601f168201915b5050505050815260200160048201805480602002602001604051908101604052809291908181526020018280548015610f0357602002820191906000526020600020906000905b82829054906101000a900460ff1660ff1681526020019060010190602082600001049283019260010382029150808411610ecc5790505b5050505050815250509050610f16611e9f565b60005b6003805490508160ff16101561118157826000015160ff1660038260ff1681548110610f6e577f4e487b7100000000000000000000000000000000000000000000000000000000600052603260045260246000fd5b906000526020600020906004020160000160019054906101000a900460ff1660ff16141561116e5760038160ff1681548110610fd3577f4e487b7100000000000000000000000000000000000000000000000000000000600052603260045260246000fd5b90600052602060002090600402016040518060a00160405290816000820160009054906101000a900460ff1660ff1660ff1681526020016000820160019054906101000a900460ff1660ff1660ff16815260200160018201805461103690612b86565b80601f016020809104026020016040519081016040528092919081815260200182805461106290612b86565b80156110af5780601f10611084576101008083540402835291602001916110af565b820191906000526020600020905b81548152906001019060200180831161109257829003601f168201915b505050505081526020016002820160009054906101000a900460ff1660ff1660ff1681526020016003820180546110e590612b86565b80601f016020809104026020016040519081016040528092919081815260200182805461111190612b86565b801561115e5780601f106111335761010080835404028352916020019161115e565b820191906000526020600020905b81548152906001019060200180831161114157829003601f168201915b5050505050815250509150611181565b808061117990612c01565b915050610f19565b5082600001518360400151846020015185606001518660c001518760a0015187600001518860200151896060015189608001519d509d509d509d509d509d509d509d509d509d50505050509193959799509193959799565b600381815481106111e957600080fd5b90600052602060002090600402016000915090508060000160009054906101000a900460ff16908060000160019054906101000a900460ff169080600101805461123290612b86565b80601f016020809104026020016040519081016040528092919081815260200182805461125e90612b86565b80156112ab5780601f10611280576101008083540402835291602001916112ab565b820191906000526020600020905b81548152906001019060200180831161128e57829003601f168201915b5050505050908060020160009054906101000a900460ff16908060030180546112d390612b86565b80601f01602080910402602001604051908101604052809291908181526020018280546112ff90612b86565b801561134c5780601f106113215761010080835404028352916020019161134c565b820191906000526020600020905b81548152906001019060200180831161132f57829003601f168201915b5050505050905085565b60008054906101000a900473ffffffffffffffffffffffffffffffffffffffff1681565b6005600081548092919061138d90612bb8565b9190505550600080600090505b6003805490508160ff161015611489578660ff1660038260ff16815481106113eb577f4e487b7100000000000000000000000000000000000000000000000000000000600052603260045260246000fd5b906000526020600020906004020160000160009054906101000a900460ff1660ff1614156114765760038160ff1681548110611450577f4e487b7100000000000000000000000000000000000000000000000000000000600052603260045260246000fd5b906000526020600020906004020160000160019054906101000a900460ff169150611489565b808061148190612c01565b91505061139a565b507fcd0a76f29cff34dc31e3f5b4364be2b9dd486be2c2c978b7eaf4e8524ad45d1f6005548783888888886040516114c79796959493929190612614565b60405180910390a1505050505050565b60055481565b600460009054906101000a900460ff1681565b6002818154811061150057600080fd5b90600052602060002090600502016000915090508060000160009054906101000a900460ff169080600101805461153690612b86565b80601f016020809104026020016040519081016040528092919081815260200182805461156290612b86565b80156115af5780601f10611584576101008083540402835291602001916115af565b820191906000526020600020905b81548152906001019060200180831161159257829003601f168201915b5050505050908060020160009054906101000a900460ff16908060020160019054906101000a900460ff16908060030180546115ea90612b86565b80601f016020809104026020016040519081016040528092919081815260200182805461161690612b86565b80156116635780601f1061163857610100808354040283529160200191611663565b820191906000526020600020905b81548152906001019060200180831161164657829003601f168201915b5050505050905085565b6000808251905060005b8160ff168160ff16101561174f57600180858360ff16815181106116c4577f4e487b7100000000000000000000000000000000000000000000000000000000600052603260045260246000fd5b60200260200101516116d69190612ab5565b60ff1681548110611710577f4e487b7100000000000000000000000000000000000000000000000000000000600052603260045260246000fd5b906000526020600020906006020160000160019054906101000a900460ff168361173a9190612a7e565b9250808061174790612c01565b915050611677565b506004600181819054906101000a900460ff168092919061176f90612c01565b91906101000a81548160ff021916908360ff1602179055505060026040518060c00160405280600460019054906101000a900460ff1660ff1681526020018781526020018460ff1681526020018360ff16815260200186815260200185815250908060018154018082558091505060019003906000526020600020906005020160009091909190915060008201518160000160006101000a81548160ff021916908360ff1602179055506020820151816001019080519060200190611835929190611e19565b5060408201518160020160006101000a81548160ff021916908360ff16021790555060608201518160020160016101000a81548160ff021916908360ff1602179055506080820151816003019080519060200190611894929190611e19565b5060a08201518160040190805190602001906118b1929190611ed7565b505050600460019054906101000a900460ff1660ff167f16ad10174d9192d68af6584d2a96e5cca5dc71d5d035c685490516417bcbb831868484886040516118fc9493929190612566565b60405180910390a260005b8160ff168160ff161015611dfe57600460019054906101000a900460ff16600180868460ff1681518110611964577f4e487b7100000000000000000000000000000000000000000000000000000000600052603260045260246000fd5b60200260200101516119769190612ab5565b60ff16815481106119b0577f4e487b7100000000000000000000000000000000000000000000000000000000600052603260045260246000fd5b906000526020600020906006020160050160006101000a81548160ff021916908360ff160217905550600180858360ff1681518110611a18577f4e487b7100000000000000000000000000000000000000000000000000000000600052603260045260246000fd5b6020026020010151611a2a9190612ab5565b60ff1681548110611a64577f4e487b7100000000000000000000000000000000000000000000000000000000600052603260045260246000fd5b906000526020600020906006020160000160009054906101000a900460ff1660ff167fa3738aba56ffbb33301f24899f35f33fbe32bcbc58fa164958f7471288e8818e600180878560ff1681518110611ae6577f4e487b7100000000000000000000000000000000000000000000000000000000600052603260045260246000fd5b6020026020010151611af89190612ab5565b60ff1681548110611b32577f4e487b7100000000000000000000000000000000000000000000000000000000600052603260045260246000fd5b906000526020600020906006020160000160019054906101000a900460ff16600180888660ff1681518110611b90577f4e487b7100000000000000000000000000000000000000000000000000000000600052603260045260246000fd5b6020026020010151611ba29190612ab5565b60ff1681548110611bdc577f4e487b7100000000000000000000000000000000000000000000000000000000600052603260045260246000fd5b9060005260206000209060060201600101600180898760ff1681518110611c2c577f4e487b7100000000000000000000000000000000000000000000000000000000600052603260045260246000fd5b6020026020010151611c3e9190612ab5565b60ff1681548110611c78577f4e487b7100000000000000000000000000000000000000000000000000000000600052603260045260246000fd5b90600052602060002090600602016004016001808a8860ff1681518110611cc8577f4e487b7100000000000000000000000000000000000000000000000000000000600052603260045260246000fd5b6020026020010151611cda9190612ab5565b60ff1681548110611d14577f4e487b7100000000000000000000000000000000000000000000000000000000600052603260045260246000fd5b90600052602060002090600602016002016001808b8960ff1681518110611d64577f4e487b7100000000000000000000000000000000000000000000000000000000600052603260045260246000fd5b6020026020010151611d769190612ab5565b60ff1681548110611db0577f4e487b7100000000000000000000000000000000000000000000000000000000600052603260045260246000fd5b9060005260206000209060060201600301600460019054906101000a900460ff16604051611de396959493929190612857565b60405180910390a28080611df690612c01565b915050611907565b505050505050565b600460029054906101000a900460ff1681565b828054611e2590612b86565b90600052602060002090601f016020900481019282611e475760008555611e8e565b82601f10611e6057805160ff1916838001178555611e8e565b82800160010185558215611e8e579182015b82811115611e8d578251825591602001919060010190611e72565b5b509050611e9b9190611f7e565b5090565b6040518060a00160405280600060ff168152602001600060ff16815260200160608152602001600060ff168152602001606081525090565b82805482825590600052602060002090601f01602090048101928215611f6d5791602002820160005b83821115611f3e57835183826101000a81548160ff021916908360ff1602179055509260200192600101602081600001049283019260010302611f00565b8015611f6b5782816101000a81549060ff0219169055600101602081600001049283019260010302611f3e565b505b509050611f7a9190611f7e565b5090565b5b80821115611f97576000816000905550600101611f7f565b5090565b6000611fae611fa9846129f1565b6129c0565b90508083825260208201905082856020860282011115611fcd57600080fd5b60005b85811015611ffd5781611fe388826120ae565b845260208401935060208301925050600181019050611fd0565b5050509392505050565b600061201a61201584612a1d565b6129c0565b90508281526020810184848401111561203257600080fd5b61203d848285612b44565b509392505050565b600082601f83011261205657600080fd5b8135612066848260208601611f9b565b91505092915050565b600082601f83011261208057600080fd5b8135612090848260208601612007565b91505092915050565b6000813590506120a881612cc9565b92915050565b6000813590506120bd81612ce0565b92915050565b6000806000606084860312156120d857600080fd5b600084013567ffffffffffffffff8111156120f257600080fd5b6120fe8682870161206f565b935050602084013567ffffffffffffffff81111561211b57600080fd5b6121278682870161206f565b925050604084013567ffffffffffffffff81111561214457600080fd5b61215086828701612045565b9150509250925092565b60006020828403121561216c57600080fd5b600061217a84828501612099565b91505092915050565b600080600080600060a0868803121561219b57600080fd5b60006121a9888289016120ae565b955050602086013567ffffffffffffffff8111156121c657600080fd5b6121d28882890161206f565b945050604086013567ffffffffffffffff8111156121ef57600080fd5b6121fb8882890161206f565b935050606086013567ffffffffffffffff81111561221857600080fd5b6122248882890161206f565b925050608086013567ffffffffffffffff81111561224157600080fd5b61224d8882890161206f565b9150509295509295909350565b60008060008060008060c0878903121561227357600080fd5b600061228189828a016120ae565b965050602087013567ffffffffffffffff81111561229e57600080fd5b6122aa89828a0161206f565b955050604087013567ffffffffffffffff8111156122c757600080fd5b6122d389828a0161206f565b945050606087013567ffffffffffffffff8111156122f057600080fd5b6122fc89828a0161206f565b935050608087013567ffffffffffffffff81111561231957600080fd5b61232589828a0161206f565b92505060a061233689828a016120ae565b9150509295509295509295565b6000806000806080858703121561235957600080fd5b6000612367878288016120ae565b945050602085013567ffffffffffffffff81111561238457600080fd5b6123908782880161206f565b93505060406123a1878288016120ae565b925050606085013567ffffffffffffffff8111156123be57600080fd5b6123ca8782880161206f565b91505092959194509250565b6123df81612ae9565b82525050565b60006123f082612a62565b6123fa8185612a6d565b935061240a818560208601612b53565b61241381612cb8565b840191505092915050565b6000815461242b81612b86565b6124358186612a6d565b94506001821660008114612450576001811461246257612495565b60ff1983168652602086019350612495565b61246b85612a4d565b60005b8381101561248d5781548189015260018201915060208101905061246e565b808801955050505b50505092915050565b60006124ab601383612a6d565b91507f496e76616c696420736869706d656e74204944000000000000000000000000006000830152602082019050919050565b60006124eb601083612a6d565b91507f496e76616c6964206261746368204944000000000000000000000000000000006000830152602082019050919050565b61252781612b1b565b82525050565b61253681612b32565b82525050565b61254581612b25565b82525050565b600060208201905061256060008301846123d6565b92915050565b6000608082019050818103600083015261258081876123e5565b905061258f602083018661253c565b61259c604083018561253c565b81810360608301526125ae81846123e5565b905095945050505050565b600060208201905081810360008301526125d28161249e565b9050919050565b600060208201905081810360008301526125f2816124de565b9050919050565b600060208201905061260e600083018461251e565b92915050565b600060e082019050612629600083018a61251e565b612636602083018961252d565b612643604083018861252d565b818103606083015261265581876123e5565b9050818103608083015261266981866123e5565b905081810360a083015261267d81856123e5565b905081810360c083015261269181846123e5565b905098975050505050505050565b60006020820190506126b4600083018461253c565b92915050565b600060c0820190506126cf600083018961253c565b81810360208301526126e181886123e5565b905081810360408301526126f581876123e5565b9050818103606083015261270981866123e5565b9050818103608083015261271d81856123e5565b905061272c60a083018461253c565b979650505050505050565b60006101408201905061274d600083018d61253c565b818103602083015261275f818c6123e5565b905061276e604083018b61253c565b8181036060830152612780818a6123e5565b905061278f608083018961253c565b81810360a08301526127a181886123e5565b90506127b060c083018761253c565b81810360e08301526127c281866123e5565b90506127d261010083018561253c565b8181036101208301526127e581846123e5565b90509b9a5050505050505050505050565b600060a08201905061280b600083018861253c565b818103602083015261281d81876123e5565b905061282c604083018661253c565b612839606083018561253c565b818103608083015261284b81846123e5565b90509695505050505050565b600060c08201905061286c600083018961253c565b818103602083015261287e818861241e565b90508181036040830152612892818761241e565b905081810360608301526128a6818661241e565b905081810360808301526128ba818561241e565b90506128c960a083018461253c565b979650505050505050565b600060e0820190506128e9600083018a61253c565b6128f6602083018961253c565b818103604083015261290881886123e5565b9050818103606083015261291c81876123e5565b9050818103608083015261293081866123e5565b905081810360a083015261294481856123e5565b905061295360c083018461253c565b98975050505050505050565b600060a082019050612974600083018861253c565b612981602083018761253c565b818103604083015261299381866123e5565b90506129a2606083018561253c565b81810360808301526129b481846123e5565b90509695505050505050565b6000604051905081810181811067ffffffffffffffff821117156129e7576129e6612c89565b5b8060405250919050565b600067ffffffffffffffff821115612a0c57612a0b612c89565b5b602082029050602081019050919050565b600067ffffffffffffffff821115612a3857612a37612c89565b5b601f19601f8301169050602081019050919050565b60008190508160005260206000209050919050565b600081519050919050565b600082825260208201905092915050565b6000612a8982612b25565b9150612a9483612b25565b92508260ff03821115612aaa57612aa9612c2b565b5b828201905092915050565b6000612ac082612b25565b9150612acb83612b25565b925082821015612ade57612add612c2b565b5b828203905092915050565b6000612af482612afb565b9050919050565b600073ffffffffffffffffffffffffffffffffffffffff82169050919050565b6000819050919050565b600060ff82169050919050565b6000612b3d82612b25565b9050919050565b82818337600083830152505050565b60005b83811015612b71578082015181840152602081019050612b56565b83811115612b80576000848401525b50505050565b60006002820490506001821680612b9e57607f821691505b60208210811415612bb257612bb1612c5a565b5b50919050565b6000612bc382612b1b565b91507fffffffffffffffffffffffffffffffffffffffffffffffffffffffffffffffff821415612bf657612bf5612c2b565b5b600182019050919050565b6000612c0c82612b25565b915060ff821415612c2057612c1f612c2b565b5b600182019050919050565b7f4e487b7100000000000000000000000000000000000000000000000000000000600052601160045260246000fd5b7f4e487b7100000000000000000000000000000000000000000000000000000000600052602260045260246000fd5b7f4e487b7100000000000000000000000000000000000000000000000000000000600052604160045260246000fd5b6000601f19601f8301169050919050565b612cd281612b1b565b8114612cdd57600080fd5b50565b612ce981612b25565b8114612cf457600080fd5b5056fea26469706673582212206b0d7e81f52c0be05275d9513a8d53fb2ffb0e29dfdb4b5ffd7a5829ff6a749264736f6c63430008000033",
  "immutableReferences": {},
  "source": "// SPDX-License-Identifier: MIT\r\npragma solidity >=0.4.22 <0.9.0;\r\n\r\npragma experimental ABIEncoderV2;\r\n\r\ncontract SupplyChain {\r\n    address public owner;\r\n\r\n    struct Pig {\r\n        uint8 pigID;\r\n        uint8 pigWeight;\r\n        string pigStartDate;\r\n        string pigEndDate;\r\n        string pigBreed;\r\n        string pigHealth;\r\n        uint8 batchID;\r\n    }\r\n\r\n    struct Batch {\r\n        uint8 batchID;\r\n        string batchName;\r\n        uint8 batchWeight;\r\n        uint8 batchQuantity;\r\n        string batchDescription;\r\n        uint8[] pigIDs;\r\n    }\r\n    \r\n    struct Product {\r\n        uint8 productID;\r\n        uint8 batchID;\r\n        string productName;\r\n        uint8 productWeight;\r\n        string productDate;\r\n    }\r\n\r\n    Pig[] public pigs;\r\n    Batch[] public batches;\r\n    Product[] public products;\r\n    uint8 public pigCount;\r\n    uint8 public batchCount;\r\n    uint8 public productCount;\r\n    uint256 public shipmentCount;\r\n\r\n    event PigAdded(uint8 indexed pigId, uint8 pigWeight, string pigStartDate, string pigHealth, string pigEndDate, string pigBreed, uint8 batchID);\r\n    event BatchAdded(uint8 indexed batchId, string batchName, uint8 batchWeight, uint8 batchQuantity, string batchDescription);\r\n    event ProductAdded(uint8 productID, uint8 batchID, string productName, uint8 productWeight, string productDate);\r\n    event ShipmentSent(uint256 shipmentID, uint256 productID, uint256 batchID, string source, string destination, string sendDate, string estimateArrivalDate);\r\n\r\n    constructor() public {\r\n        owner = msg.sender;\r\n    }\r\n\r\n    function addPig(uint8 _pigWeight, string memory _pigStartDate, string memory _pigEndDate, string memory _pigBreed, string memory _pigHealth, uint8 _batchID) public {\r\n        pigCount++;\r\n        pigs.push(Pig(pigCount, _pigWeight, _pigStartDate, _pigEndDate, _pigBreed, _pigHealth, _batchID));\r\n        emit PigAdded(pigCount, _pigWeight, _pigStartDate, _pigHealth, _pigEndDate, _pigBreed, _batchID);\r\n    }\r\n\r\n    function addBatch(string memory _batchName, string memory _batchDescription, uint8[] memory _pigIDs) public {\r\n        uint8 totalWeight;\r\n        uint8 totalPigs = uint8(_pigIDs.length);\r\n\r\n        for (uint8 i = 0; i < totalPigs; i++) {\r\n            totalWeight += pigs[_pigIDs[i] - 1].pigWeight;\r\n        }\r\n\r\n        batchCount++;\r\n\r\n        batches.push(Batch(batchCount, _batchName, totalWeight, totalPigs, _batchDescription, _pigIDs));\r\n\r\n        emit BatchAdded(batchCount, _batchName, totalWeight, totalPigs, _batchDescription);\r\n\r\n        for (uint8 i = 0; i < totalPigs; i++) {\r\n            pigs[_pigIDs[i] - 1].batchID = batchCount;\r\n            emit PigAdded(pigs[_pigIDs[i] - 1].pigID, pigs[_pigIDs[i] - 1].pigWeight, pigs[_pigIDs[i] - 1].pigStartDate, pigs[_pigIDs[i] - 1].pigHealth, pigs[_pigIDs[i] - 1].pigEndDate, pigs[_pigIDs[i] - 1].pigBreed, batchCount);\r\n        }\r\n    }\r\n\r\n    function addProduct(uint8 _batchID, string memory _productName, uint8 _productWeight, string memory _productDate) public {\r\n        require(_batchID > 0 && _batchID <= batchCount, \"Invalid batch ID\");\r\n        \r\n        productCount++;\r\n        products.push(Product(productCount, _batchID, _productName, _productWeight, _productDate));\r\n        emit ProductAdded(productCount, _batchID, _productName, _productWeight, _productDate);\r\n    }\r\n\r\n    function sendShipment(uint8 _productID, string memory _source, string memory _destination, string memory _sendDate, string memory _estimateArrivalDate) public {\r\n        shipmentCount++;\r\n        uint8 batchID;\r\n        for(uint8 i = 0; i < products.length; i++) {\r\n            if(products[i].productID == _productID) {\r\n                batchID = products[i].batchID;\r\n                break;\r\n            }\r\n        }\r\n        emit ShipmentSent(shipmentCount, _productID, batchID, _source, _destination, _sendDate, _estimateArrivalDate);\r\n    }\r\n\r\n    function getShipmentJourney(uint256 _shipmentID) public view returns (uint8, string memory, uint8, string memory, uint8, string memory, uint8, string memory, uint8, string memory) {\r\n        require(_shipmentID > 0 && _shipmentID <= shipmentCount, \"Invalid shipment ID\");\r\n\r\n        uint8 index = uint8(_shipmentID) - 1; \r\n\r\n        Pig memory pig = pigs[index];\r\n\r\n        Batch memory batch = batches[pig.batchID - 1];\r\n\r\n        Product memory product;\r\n        for(uint8 i = 0; i < products.length; i++) {\r\n            if(products[i].batchID == batch.batchID) {\r\n                product = products[i];\r\n                break;\r\n            }\r\n        }\r\n\r\n        return (pig.pigID, pig.pigStartDate, pig.pigWeight, pig.pigEndDate, pig.batchID, pig.pigHealth, batch.batchID, batch.batchName, batch.batchQuantity, product.productDate);\r\n    }\r\n}\r\n",
  "sourcePath": "D:\\Coding\\KMUTNB Coding\\Blockchain\\porkchain\\contracts\\PorkChain.sol",
  "compiler": {
    "name": "solc",
    "version": "0.8.0+commit.c7dfd78e.Emscripten.clang"
  },
  "schemaVersion": "3.4.16",
  "updatedAt": "2024-04-07T07:06:58.966Z",
  "devdoc": {
    "kind": "dev",
    "methods": {},
    "version": 1
  },
  "userdoc": {
    "kind": "user",
    "methods": {},
    "version": 1
  }
}